{
  "contractName": "Access",
  "abi": [
    {
      "inputs": [],
      "payable": false,
      "stateMutability": "nonpayable",
      "type": "constructor"
    },
    {
      "anonymous": false,
      "inputs": [
        {
          "indexed": false,
          "internalType": "uint256",
          "name": "amount",
          "type": "uint256"
        },
        {
          "indexed": false,
          "internalType": "uint256",
          "name": "moneyNeeded",
          "type": "uint256"
        }
      ],
      "name": "Balance",
      "type": "event"
    },
    {
      "anonymous": false,
      "inputs": [
        {
          "components": [
            {
              "internalType": "bytes32",
              "name": "id",
              "type": "bytes32"
            },
            {
              "internalType": "string",
              "name": "name",
              "type": "string"
            },
            {
              "internalType": "bool",
              "name": "proxyUser",
              "type": "bool"
            },
            {
              "internalType": "uint256[]",
              "name": "mods",
              "type": "uint256[]"
            },
            {
              "internalType": "uint256[]",
              "name": "mTime",
              "type": "uint256[]"
            }
          ],
          "indexed": false,
          "internalType": "struct Access.Member",
          "name": "mem",
          "type": "tuple"
        }
      ],
      "name": "HOPE",
      "type": "event"
    },
    {
      "anonymous": false,
      "inputs": [
        {
          "indexed": false,
          "internalType": "bytes32",
          "name": "id",
          "type": "bytes32"
        }
      ],
      "name": "IDK",
      "type": "event"
    },
    {
      "anonymous": false,
      "inputs": [
        {
          "indexed": false,
          "internalType": "string",
          "name": "description",
          "type": "string"
        }
      ],
      "name": "LogNewProvableQuery",
      "type": "event"
    },
    {
      "anonymous": false,
      "inputs": [
        {
          "indexed": false,
          "internalType": "string",
          "name": "result",
          "type": "string"
        }
      ],
      "name": "QueryRes",
      "type": "event"
    },
    {
      "payable": true,
      "stateMutability": "payable",
      "type": "fallback"
    },
    {
      "constant": true,
      "inputs": [],
      "name": "balance",
      "outputs": [
        {
          "internalType": "uint256",
          "name": "",
          "type": "uint256"
        }
      ],
      "payable": false,
      "stateMutability": "view",
      "type": "function"
    },
    {
      "constant": true,
      "inputs": [],
      "name": "last_completed_migration",
      "outputs": [
        {
          "internalType": "uint256",
          "name": "",
          "type": "uint256"
        }
      ],
      "payable": false,
      "stateMutability": "view",
      "type": "function"
    },
    {
      "constant": true,
      "inputs": [],
      "name": "owner",
      "outputs": [
        {
          "internalType": "address",
          "name": "",
          "type": "address"
        }
      ],
      "payable": false,
      "stateMutability": "view",
      "type": "function"
    },
    {
      "constant": false,
      "inputs": [
        {
          "internalType": "bytes32",
          "name": "myid",
          "type": "bytes32"
        },
        {
          "internalType": "string",
          "name": "result",
          "type": "string"
        }
      ],
      "name": "__callback",
      "outputs": [],
      "payable": false,
      "stateMutability": "nonpayable",
      "type": "function"
    },
    {
      "constant": false,
      "inputs": [
        {
          "internalType": "bytes32",
          "name": "_myid",
          "type": "bytes32"
        },
        {
          "internalType": "string",
          "name": "_result",
          "type": "string"
        },
        {
          "internalType": "bytes",
          "name": "_proof",
          "type": "bytes"
        }
      ],
      "name": "__callback",
      "outputs": [],
      "payable": false,
      "stateMutability": "nonpayable",
      "type": "function"
    },
    {
      "constant": true,
      "inputs": [],
      "name": "getAccess",
      "outputs": [],
      "payable": false,
      "stateMutability": "view",
      "type": "function"
    },
    {
      "constant": true,
      "inputs": [
        {
          "internalType": "string",
          "name": "_name",
          "type": "string"
        }
      ],
      "name": "memberAccess",
      "outputs": [],
      "payable": false,
      "stateMutability": "view",
      "type": "function"
    },
    {
      "constant": true,
      "inputs": [
        {
          "internalType": "string",
          "name": "_name",
          "type": "string"
        }
      ],
      "name": "researcherAccess",
      "outputs": [],
      "payable": false,
      "stateMutability": "view",
      "type": "function"
    },
    {
      "constant": false,
      "inputs": [
        {
          "internalType": "string",
          "name": "_name",
          "type": "string"
        },
        {
          "internalType": "bool",
          "name": "_proxy",
          "type": "bool"
        }
      ],
      "name": "addMember",
      "outputs": [],
      "payable": false,
      "stateMutability": "nonpayable",
      "type": "function"
    },
    {
      "constant": false,
      "inputs": [
        {
          "internalType": "string",
          "name": "_name",
          "type": "string"
        }
      ],
      "name": "addResearcher",
      "outputs": [],
      "payable": false,
      "stateMutability": "nonpayable",
      "type": "function"
    },
    {
      "constant": false,
      "inputs": [],
      "name": "queryDB",
      "outputs": [],
      "payable": true,
      "stateMutability": "payable",
      "type": "function"
    },
    {
      "constant": false,
      "inputs": [
        {
          "internalType": "uint256",
          "name": "_index",
          "type": "uint256"
        }
      ],
      "name": "help",
      "outputs": [],
      "payable": false,
      "stateMutability": "nonpayable",
      "type": "function"
    },
    {
      "constant": true,
      "inputs": [],
      "name": "getRes",
      "outputs": [
        {
          "internalType": "string",
          "name": "res",
          "type": "string"
        }
      ],
      "payable": false,
      "stateMutability": "pure",
      "type": "function"
    }
  ],
  "bytecode": "0x60806040526000801b6006553480156200001857600080fd5b5033600560006101000a81548173ffffffffffffffffffffffffffffffffffffffff021916908373ffffffffffffffffffffffffffffffffffffffff1602179055506040518060400160405280600481526020017f504f535400000000000000000000000000000000000000000000000000000000815250600a60008081526020019081526020016000209080519060200190620000b8929190620006ca565b506040518060400160405280600381526020017f5055540000000000000000000000000000000000000000000000000000000000815250600a600060018152602001908152602001600020908051906020019062000118929190620006ca565b506040518060400160405280600381526020017f4745540000000000000000000000000000000000000000000000000000000000815250600a600060028152602001908152602001600020908051906020019062000178929190620006ca565b506040518060400160405280600681526020017f44454c4554450000000000000000000000000000000000000000000000000000815250600a6000600381526020019081526020016000209080519060200190620001d8929190620006ca565b50620002216040518060400160405280600381526020017f6b656e000000000000000000000000000000000000000000000000000000000081525060006200026d60201b60201c565b620002676040518060400160405280600581526020017f44616e6e79000000000000000000000000000000000000000000000000000000815250620004c160201b60201c565b620009d5565b600560009054906101000a900473ffffffffffffffffffffffffffffffffffffffff1673ffffffffffffffffffffffffffffffffffffffff163373ffffffffffffffffffffffffffffffffffffffff161415620004bd5760008282604051602001620002db9291906200091c565b6040516020818303038152906040528051906020012090506060620002ff62000751565b6040518060a00160405280848152602001868152602001851515815260200183815260200183815250905080600b60008581526020019081526020016000206000820151816000015560208201518160010190805190602001906200036692919062000785565b5060408201518160020160006101000a81548160ff0219169083151502179055506060820151816003019080519060200190620003a59291906200080c565b506080820151816004019080519060200190620003c49291906200080c565b509050506001600d86604051620003dc919062000903565b908152602001604051809103902060006101000a81548160ff021916908315150217905550600f81908060018154018082558091505090600182039060005260206000209060050201600090919290919091506000820151816000015560208201518160010190805190602001906200045792919062000785565b5060408201518160020160006101000a81548160ff0219169083151502179055506060820151816003019080519060200190620004969291906200080c565b506080820151816004019080519060200190620004b59291906200080c565b505050505050505b5050565b600560009054906101000a900473ffffffffffffffffffffffffffffffffffffffff1673ffffffffffffffffffffffffffffffffffffffff163373ffffffffffffffffffffffffffffffffffffffff161415620006c7576000816040516020016200052d919062000903565b6040516020818303038152906040528051906020012090506060620005516200085e565b604051806080016040528084815260200185815260200183815260200183815250905080600c6000858152602001908152602001600020600082015181600001556020820151816001019080519060200190620005b092919062000785565b506040820151816002019080519060200190620005cf9291906200080c565b506060820151816003019080519060200190620005ee9291906200080c565b509050506001600e8560405162000606919062000903565b908152602001604051809103902060006101000a81548160ff021916908315150217905550601081908060018154018082558091505090600182039060005260206000209060040201600090919290919091506000820151816000015560208201518160010190805190602001906200068192919062000785565b506040820151816002019080519060200190620006a09291906200080c565b506060820151816003019080519060200190620006bf9291906200080c565b505050505050505b50565b828054600181600116156101000203166002900490600052602060002090601f016020900481019282601f106200070d57805160ff19168380011785556200073e565b828001600101855582156200073e579182015b828111156200073d57825182559160200191906001019062000720565b5b5090506200074d919062000889565b5090565b6040518060a00160405280600080191681526020016060815260200160001515815260200160608152602001606081525090565b828054600181600116156101000203166002900490600052602060002090601f016020900481019282601f10620007c857805160ff1916838001178555620007f9565b82800160010185558215620007f9579182015b82811115620007f8578251825591602001919060010190620007db565b5b50905062000808919062000889565b5090565b8280548282559060005260206000209081019282156200084b579160200282015b828111156200084a5782518255916020019190600101906200082d565b5b5090506200085a919062000889565b5090565b6040518060800160405280600080191681526020016060815260200160608152602001606081525090565b620008ae91905b80821115620008aa57600081600090555060010162000890565b5090565b90565b620008c6620008c0826200095e565b620009a0565b82525050565b6000620008d98262000948565b620008e5818562000953565b9350620008f78185602086016200096a565b80840191505092915050565b6000620009118284620008cc565b915081905092915050565b60006200092a8285620008cc565b9150620009388284620008b1565b6001820191508190509392505050565b600081519050919050565b600081905092915050565b60008115159050919050565b60005b838110156200098a5780820151818401526020810190506200096d565b838111156200099a576000848401525b50505050565b6000620009ad82620009b4565b9050919050565b6000620009c182620009c8565b9050919050565b60008160f81b9050919050565b612a7c80620009e56000396000f3fe6080604052600436106100c25760003560e01c80638da5cb5b1161007f578063cb5dd85511610059578063cb5dd8551461021e578063d0d07bb514610247578063e86438c214610270578063f7ca843114610299576100c2565b80638da5cb5b1461019f57806392c68389146101ca578063b69ef8a8146101f3576100c2565b8063180f85fc146100c457806327dc297e146100ce57806338bbfa50146100f7578063445df0ac14610120578063797e7a481461014b578063801aaef314610176575b005b6100cc6102b0565b005b3480156100da57600080fd5b506100f560048036036100f09190810190611e55565b6103d6565b005b34801561010357600080fd5b5061011e60048036036101199190810190611ea9565b61049e565b005b34801561012c57600080fd5b506101356104c1565b60405161014291906126ff565b60405180910390f35b34801561015757600080fd5b506101606104c7565b60405161016d91906125d9565b60405180910390f35b34801561018257600080fd5b5061019d60048036036101989190810190611f28565b6104cf565b005b3480156101ab57600080fd5b506101b461053d565b6040516101c1919061255e565b60405180910390f35b3480156101d657600080fd5b506101f160048036036101ec9190810190611f69565b610563565b005b3480156101ff57600080fd5b506102086107a4565b60405161021591906126ff565b60405180910390f35b34801561022a57600080fd5b5061024560048036036102409190810190611fbd565b6107aa565b005b34801561025357600080fd5b5061026e60048036036102699190810190611f28565b610853565b005b34801561027c57600080fd5b5061029760048036036102929190810190611f28565b6108c1565b005b3480156102a557600080fd5b506102ae610ab7565b005b3073ffffffffffffffffffffffffffffffffffffffff16316103066040518060400160405280600381526020017f55524c0000000000000000000000000000000000000000000000000000000000815250610b49565b1115610346577fc4dc360d0a9c0677a3379ae0a3d81e887f761e65fdf3d7e00859d1bcd3c473896040516103399061263d565b60405180910390a16103d4565b7fc4dc360d0a9c0677a3379ae0a3d81e887f761e65fdf3d7e00859d1bcd3c473896040516103739061261d565b60405180910390a16103d26040518060400160405280600381526020017f55524c00000000000000000000000000000000000000000000000000000000008152506040518060600160405280603c81526020016129fe603c9139610e6c565b505b565b6103de61126b565b73ffffffffffffffffffffffffffffffffffffffff163373ffffffffffffffffffffffffffffffffffffffff161461044b576040517f08c379a00000000000000000000000000000000000000000000000000000000081526004016104429061267d565b60405180910390fd5b8060099080519060200190610461929190611b0c565b507f3be1e4151697cd0a5c68a673e06a826bd4161812e0d61969c070c9ec651173cc600960405161049291906125fb565b60405180910390a15050565b6000801b600360008060001b815260200190815260200160002081905550505050565b60075481565b606080905090565b600d816040516104df919061251f565b908152602001604051809103902060009054906101000a900460ff1661053a576040517f08c379a00000000000000000000000000000000000000000000000000000000081526004016105319061265d565b60405180910390fd5b50565b600560009054906101000a900473ffffffffffffffffffffffffffffffffffffffff1681565b600560009054906101000a900473ffffffffffffffffffffffffffffffffffffffff1673ffffffffffffffffffffffffffffffffffffffff163373ffffffffffffffffffffffffffffffffffffffff1614156107a057600082826040516020016105ce929190612536565b60405160208183030381529060405280519060200120905060606105f0611b8c565b6040518060a00160405280848152602001868152602001851515815260200183815260200183815250905080600b6000858152602001908152602001600020600082015181600001556020820151816001019080519060200190610655929190611bc0565b5060408201518160020160006101000a81548160ff0219169083151502179055506060820151816003019080519060200190610692929190611c40565b5060808201518160040190805190602001906106af929190611c40565b509050506001600d866040516106c5919061251f565b908152602001604051809103902060006101000a81548160ff021916908315150217905550600f819080600181540180825580915050906001820390600052602060002090600502016000909192909190915060008201518160000155602082015181600101908051906020019061073e929190611bc0565b5060408201518160020160006101000a81548160ff021916908315150217905550606082015181600301908051906020019061077b929190611c40565b506080820151816004019080519060200190610798929190611c40565b505050505050505b5050565b60085481565b7ff97925f943254b10f6ae3c29b6823f87c74295eb89b2f3d9d603b55470a5b5b1600f82815481106107d857fe5b9060005260206000209060050201600001546040516107f79190612579565b60405180910390a17f15bf8becc2c08a5a410f3bba573ed78922f437a1786dd3aa0429fa0286237c36600f828154811061082d57fe5b906000526020600020906005020160405161084891906126dd565b60405180910390a150565b600e81604051610863919061251f565b908152602001604051809103902060009054906101000a900460ff166108be576040517f08c379a00000000000000000000000000000000000000000000000000000000081526004016108b59061269d565b60405180910390fd5b50565b600560009054906101000a900473ffffffffffffffffffffffffffffffffffffffff1673ffffffffffffffffffffffffffffffffffffffff163373ffffffffffffffffffffffffffffffffffffffff161415610ab45760008160405160200161092a919061251f565b604051602081830303815290604052805190602001209050606061094c611c8d565b604051806080016040528084815260200185815260200183815260200183815250905080600c60008581526020019081526020016000206000820151816000015560208201518160010190805190602001906109a9929190611bc0565b5060408201518160020190805190602001906109c6929190611c40565b5060608201518160030190805190602001906109e3929190611c40565b509050506001600e856040516109f9919061251f565b908152602001604051809103902060006101000a81548160ff02191690831515021790555060108190806001815401808255809150509060018203906000526020600020906004020160009091929091909150600082015181600001556020820151816001019080519060200190610a72929190611bc0565b506040820151816002019080519060200190610a8f929190611c40565b506060820151816003019080519060200190610aac929190611c40565b505050505050505b50565b600560009054906101000a900473ffffffffffffffffffffffffffffffffffffffff1673ffffffffffffffffffffffffffffffffffffffff163373ffffffffffffffffffffffffffffffffffffffff1614610b47576040517f08c379a0000000000000000000000000000000000000000000000000000000008152600401610b3e906126bd565b60405180910390fd5b565b60008073ffffffffffffffffffffffffffffffffffffffff16600160009054906101000a900473ffffffffffffffffffffffffffffffffffffffff1673ffffffffffffffffffffffffffffffffffffffff161480610bd157506000610bcf600160009054906101000a900473ffffffffffffffffffffffffffffffffffffffff1661157f565b145b15610be257610be0600061158a565b505b600160009054906101000a900473ffffffffffffffffffffffffffffffffffffffff1673ffffffffffffffffffffffffffffffffffffffff166338cc48316040518163ffffffff1660e01b8152600401602060405180830381600087803b158015610c4c57600080fd5b505af1158015610c60573d6000803e3d6000fd5b505050506040513d601f19601f82011682018060405250610c849190810190611e03565b73ffffffffffffffffffffffffffffffffffffffff166000809054906101000a900473ffffffffffffffffffffffffffffffffffffffff1673ffffffffffffffffffffffffffffffffffffffff1614610db957600160009054906101000a900473ffffffffffffffffffffffffffffffffffffffff1673ffffffffffffffffffffffffffffffffffffffff166338cc48316040518163ffffffff1660e01b8152600401602060405180830381600087803b158015610d4157600080fd5b505af1158015610d55573d6000803e3d6000fd5b505050506040513d601f19601f82011682018060405250610d799190810190611e03565b6000806101000a81548173ffffffffffffffffffffffffffffffffffffffff021916908373ffffffffffffffffffffffffffffffffffffffff1602179055505b6000809054906101000a900473ffffffffffffffffffffffffffffffffffffffff1673ffffffffffffffffffffffffffffffffffffffff1663524f3889836040518263ffffffff1660e01b8152600401610e1391906125d9565b602060405180830381600087803b158015610e2d57600080fd5b505af1158015610e41573d6000803e3d6000fd5b505050506040513d601f19601f82011682018060405250610e659190810190611fe6565b9050919050565b60008073ffffffffffffffffffffffffffffffffffffffff16600160009054906101000a900473ffffffffffffffffffffffffffffffffffffffff1673ffffffffffffffffffffffffffffffffffffffff161480610ef457506000610ef2600160009054906101000a900473ffffffffffffffffffffffffffffffffffffffff1661157f565b145b15610f0557610f03600061158a565b505b600160009054906101000a900473ffffffffffffffffffffffffffffffffffffffff1673ffffffffffffffffffffffffffffffffffffffff166338cc48316040518163ffffffff1660e01b8152600401602060405180830381600087803b158015610f6f57600080fd5b505af1158015610f83573d6000803e3d6000fd5b505050506040513d601f19601f82011682018060405250610fa79190810190611e03565b73ffffffffffffffffffffffffffffffffffffffff166000809054906101000a900473ffffffffffffffffffffffffffffffffffffffff1673ffffffffffffffffffffffffffffffffffffffff16146110dc57600160009054906101000a900473ffffffffffffffffffffffffffffffffffffffff1673ffffffffffffffffffffffffffffffffffffffff166338cc48316040518163ffffffff1660e01b8152600401602060405180830381600087803b15801561106457600080fd5b505af1158015611078573d6000803e3d6000fd5b505050506040513d601f19601f8201168201806040525061109c9190810190611e03565b6000806101000a81548173ffffffffffffffffffffffffffffffffffffffff021916908373ffffffffffffffffffffffffffffffffffffffff1602179055505b60008060009054906101000a900473ffffffffffffffffffffffffffffffffffffffff1673ffffffffffffffffffffffffffffffffffffffff1663524f3889856040518263ffffffff1660e01b815260040161113891906125d9565b602060405180830381600087803b15801561115257600080fd5b505af1158015611166573d6000803e3d6000fd5b505050506040513d601f19601f8201168201806040525061118a9190810190611fe6565b905062030d403a02670de0b6b3a7640000018111156111af576000801b915050611265565b6000809054906101000a900473ffffffffffffffffffffffffffffffffffffffff1673ffffffffffffffffffffffffffffffffffffffff1663adf59f9982600087876040518563ffffffff1660e01b815260040161120f93929190612594565b6020604051808303818588803b15801561122857600080fd5b505af115801561123c573d6000803e3d6000fd5b50505050506040513d601f19601f820116820180604052506112619190810190611e2c565b9150505b92915050565b60008073ffffffffffffffffffffffffffffffffffffffff16600160009054906101000a900473ffffffffffffffffffffffffffffffffffffffff1673ffffffffffffffffffffffffffffffffffffffff1614806112f3575060006112f1600160009054906101000a900473ffffffffffffffffffffffffffffffffffffffff1661157f565b145b1561130457611302600061158a565b505b600160009054906101000a900473ffffffffffffffffffffffffffffffffffffffff1673ffffffffffffffffffffffffffffffffffffffff166338cc48316040518163ffffffff1660e01b8152600401602060405180830381600087803b15801561136e57600080fd5b505af1158015611382573d6000803e3d6000fd5b505050506040513d601f19601f820116820180604052506113a69190810190611e03565b73ffffffffffffffffffffffffffffffffffffffff166000809054906101000a900473ffffffffffffffffffffffffffffffffffffffff1673ffffffffffffffffffffffffffffffffffffffff16146114db57600160009054906101000a900473ffffffffffffffffffffffffffffffffffffffff1673ffffffffffffffffffffffffffffffffffffffff166338cc48316040518163ffffffff1660e01b8152600401602060405180830381600087803b15801561146357600080fd5b505af1158015611477573d6000803e3d6000fd5b505050506040513d601f19601f8201168201806040525061149b9190810190611e03565b6000806101000a81548173ffffffffffffffffffffffffffffffffffffffff021916908373ffffffffffffffffffffffffffffffffffffffff1602179055505b6000809054906101000a900473ffffffffffffffffffffffffffffffffffffffff1673ffffffffffffffffffffffffffffffffffffffff1663c281d19e6040518163ffffffff1660e01b815260040160206040518083038186803b15801561154257600080fd5b505afa158015611556573d6000803e3d6000fd5b505050506040513d601f19601f8201168201806040525061157a9190810190611e03565b905090565b6000813b9050919050565b600061159461159b565b9050919050565b6000806115bb731d3b2638a7cc9f2cb3d298a3da7a90b67e5506ed61157f565b111561165d57731d3b2638a7cc9f2cb3d298a3da7a90b67e5506ed600160006101000a81548173ffffffffffffffffffffffffffffffffffffffff021916908373ffffffffffffffffffffffffffffffffffffffff1602179055506116546040518060400160405280600b81526020017f6574685f6d61696e6e6574000000000000000000000000000000000000000000815250611af2565b60019050611aef565b600061167c73c03a2615d5efaf5f49f60b7bb6583eaec212fdf161157f565b111561171e5773c03a2615d5efaf5f49f60b7bb6583eaec212fdf1600160006101000a81548173ffffffffffffffffffffffffffffffffffffffff021916908373ffffffffffffffffffffffffffffffffffffffff1602179055506117156040518060400160405280600c81526020017f6574685f726f707374656e330000000000000000000000000000000000000000815250611af2565b60019050611aef565b600061173d73b7a07bcf2ba2f2703b24c0691b5278999c59ac7e61157f565b11156117df5773b7a07bcf2ba2f2703b24c0691b5278999c59ac7e600160006101000a81548173ffffffffffffffffffffffffffffffffffffffff021916908373ffffffffffffffffffffffffffffffffffffffff1602179055506117d66040518060400160405280600981526020017f6574685f6b6f76616e0000000000000000000000000000000000000000000000815250611af2565b60019050611aef565b60006117fe73146500cfd35b22e4a392fe0adc06de1a1368ed4861157f565b11156118a05773146500cfd35b22e4a392fe0adc06de1a1368ed48600160006101000a81548173ffffffffffffffffffffffffffffffffffffffff021916908373ffffffffffffffffffffffffffffffffffffffff1602179055506118976040518060400160405280600b81526020017f6574685f72696e6b656279000000000000000000000000000000000000000000815250611af2565b60019050611aef565b60006118bf73a2998efd205fb9d4b4963afb70778d6354ad3a4161157f565b11156119615773a2998efd205fb9d4b4963afb70778d6354ad3a41600160006101000a81548173ffffffffffffffffffffffffffffffffffffffff021916908373ffffffffffffffffffffffffffffffffffffffff1602179055506119586040518060400160405280600a81526020017f6574685f676f65726c6900000000000000000000000000000000000000000000815250611af2565b60019050611aef565b6000611980736f485c8bf6fc43ea212e93bbf8ce046c7f1cb47561157f565b11156119e457736f485c8bf6fc43ea212e93bbf8ce046c7f1cb475600160006101000a81548173ffffffffffffffffffffffffffffffffffffffff021916908373ffffffffffffffffffffffffffffffffffffffff16021790555060019050611aef565b6000611a037320e12a1f859b3feae5fb2a0a32c18f5a65555bbf61157f565b1115611a67577320e12a1f859b3feae5fb2a0a32c18f5a65555bbf600160006101000a81548173ffffffffffffffffffffffffffffffffffffffff021916908373ffffffffffffffffffffffffffffffffffffffff16021790555060019050611aef565b6000611a867351efaf4c8b3c9afbd5ab9f4bbc82784ab6ef8faa61157f565b1115611aea577351efaf4c8b3c9afbd5ab9f4bbc82784ab6ef8faa600160006101000a81548173ffffffffffffffffffffffffffffffffffffffff021916908373ffffffffffffffffffffffffffffffffffffffff16021790555060019050611aef565b600090505b90565b8060029080519060200190611b08929190611b0c565b5050565b828054600181600116156101000203166002900490600052602060002090601f016020900481019282601f10611b4d57805160ff1916838001178555611b7b565b82800160010185558215611b7b579182015b82811115611b7a578251825591602001919060010190611b5f565b5b509050611b889190611cb8565b5090565b6040518060a00160405280600080191681526020016060815260200160001515815260200160608152602001606081525090565b828054600181600116156101000203166002900490600052602060002090601f016020900481019282601f10611c0157805160ff1916838001178555611c2f565b82800160010185558215611c2f579182015b82811115611c2e578251825591602001919060010190611c13565b5b509050611c3c9190611cb8565b5090565b828054828255906000526020600020908101928215611c7c579160200282015b82811115611c7b578251825591602001919060010190611c60565b5b509050611c899190611cb8565b5090565b6040518060800160405280600080191681526020016060815260200160608152602001606081525090565b611cda91905b80821115611cd6576000816000905550600101611cbe565b5090565b90565b600081519050611cec816129a1565b92915050565b600081359050611d01816129b8565b92915050565b600081359050611d16816129cf565b92915050565b600081519050611d2b816129cf565b92915050565b600082601f830112611d4257600080fd5b8135611d55611d5082612747565b61271a565b91508082526020830160208301858383011115611d7157600080fd5b611d7c8382846128af565b50505092915050565b600082601f830112611d9657600080fd5b8135611da9611da482612773565b61271a565b91508082526020830160208301858383011115611dc557600080fd5b611dd08382846128af565b50505092915050565b600081359050611de8816129e6565b92915050565b600081519050611dfd816129e6565b92915050565b600060208284031215611e1557600080fd5b6000611e2384828501611cdd565b91505092915050565b600060208284031215611e3e57600080fd5b6000611e4c84828501611d1c565b91505092915050565b60008060408385031215611e6857600080fd5b6000611e7685828601611d07565b925050602083013567ffffffffffffffff811115611e9357600080fd5b611e9f85828601611d85565b9150509250929050565b600080600060608486031215611ebe57600080fd5b6000611ecc86828701611d07565b935050602084013567ffffffffffffffff811115611ee957600080fd5b611ef586828701611d85565b925050604084013567ffffffffffffffff811115611f1257600080fd5b611f1e86828701611d31565b9150509250925092565b600060208284031215611f3a57600080fd5b600082013567ffffffffffffffff811115611f5457600080fd5b611f6084828501611d85565b91505092915050565b60008060408385031215611f7c57600080fd5b600083013567ffffffffffffffff811115611f9657600080fd5b611fa285828601611d85565b9250506020611fb385828601611cf2565b9150509250929050565b600060208284031215611fcf57600080fd5b6000611fdd84828501611dd9565b91505092915050565b600060208284031215611ff857600080fd5b600061200684828501611dee565b91505092915050565b600061201b8383612501565b60208301905092915050565b6120308161284b565b82525050565b6000612041826127c9565b61204b81856127ec565b93506120568361279f565b8060005b8381101561208e5761206b82612963565b612075888261200f565b9750612080836127df565b92505060018101905061205a565b5085935050505092915050565b6120a48161285d565b82525050565b6120bb6120b68261285d565b61293f565b82525050565b6120ca81612869565b82525050565b6120d981612869565b82525050565b6120e88161289d565b82525050565b60006120f9826127d4565b612103818561280e565b93506121138185602086016128be565b61211c81612976565b840191505092915050565b6000612132826127d4565b61213c818561281f565b935061214c8185602086016128be565b80840191505092915050565b600081546001811660008114612175576001811461219b576121df565b607f600283041661218681876127fd565b955060ff1983168652602086019350506121df565b600282046121a981876127fd565b95506121b4856127b4565b60005b828110156121d6578154818901526001820191506020810190506121b7565b80880195505050505b505092915050565b600081546001811660008114612204576001811461222a5761226e565b607f6002830416612215818761280e565b955060ff19831686526020860193505061226e565b60028204612238818761280e565b9550612243856127b4565b60005b8281101561226557815481890152600182019150602081019050612246565b80880195505050505b505092915050565b600061228360358361280e565b91507f50726f7661626c65207175657279207761732073656e742c207374616e64696e60008301527f6720627920666f722074686520616e737765722e2e00000000000000000000006020830152604082019050919050565b60006122e9604b8361280e565b91507f50726f7661626c6520717565727920776173204e4f542073656e742c20706c6560008301527f6173652061646420736f6d652045544820746f20636f76657220666f7220746860208301527f65207175657279206665650000000000000000000000000000000000000000006040830152606082019050919050565b600061237560168361280e565b91507f4d656d62657220646f6573206e6f7420657869737421000000000000000000006000830152602082019050919050565b60006123b560108361280e565b91507f4e6f7420456e6f7567682046756e6473000000000000000000000000000000006000830152602082019050919050565b60006123f5601a8361280e565b91507f5265736561726368657220646f6573206e6f74206578697374210000000000006000830152602082019050919050565b600061243560138361280e565b91507f416363657373206e6f74204772616e74656421000000000000000000000000006000830152602082019050919050565b600060a08301600080840154905061247f8161290b565b61248c60008701826120c1565b506001840185830360208701526124a38382612158565b925050600284015490506124b6816128f1565b6124c3604087018261209b565b506003840185830360608701526124da8382612036565b9250506004840185830360808701526124f38382612036565b925050819250505092915050565b61250a81612893565b82525050565b61251981612893565b82525050565b600061252b8284612127565b915081905092915050565b60006125428285612127565b915061254e82846120aa565b6001820191508190509392505050565b60006020820190506125736000830184612027565b92915050565b600060208201905061258e60008301846120d0565b92915050565b60006060820190506125a960008301866120df565b81810360208301526125bb81856120ee565b905081810360408301526125cf81846120ee565b9050949350505050565b600060208201905081810360008301526125f381846120ee565b905092915050565b6000602082019050818103600083015261261581846121e7565b905092915050565b6000602082019050818103600083015261263681612276565b9050919050565b60006020820190508181036000830152612656816122dc565b9050919050565b6000602082019050818103600083015261267681612368565b9050919050565b60006020820190508181036000830152612696816123a8565b9050919050565b600060208201905081810360008301526126b6816123e8565b9050919050565b600060208201905081810360008301526126d681612428565b9050919050565b600060208201905081810360008301526126f78184612468565b905092915050565b60006020820190506127146000830184612510565b92915050565b6000604051905081810181811067ffffffffffffffff8211171561273d57600080fd5b8060405250919050565b600067ffffffffffffffff82111561275e57600080fd5b601f19601f8301169050602081019050919050565b600067ffffffffffffffff82111561278a57600080fd5b601f19601f8301169050602081019050919050565b60008190508160005260206000209050919050565b60008190508160005260206000209050919050565b600081549050919050565b600081519050919050565b6000600182019050919050565b600082825260208201905092915050565b600082825260208201905092915050565b600082825260208201905092915050565b600081905092915050565b600060ff82169050919050565b6000819050919050565b6000819050919050565b600061285682612873565b9050919050565b60008115159050919050565b6000819050919050565b600073ffffffffffffffffffffffffffffffffffffffff82169050919050565b6000819050919050565b60006128a882612893565b9050919050565b82818337600083830152505050565b60005b838110156128dc5780820151818401526020810190506128c1565b838111156128eb576000848401525b50505050565b60006129046128ff83612994565b61282a565b9050919050565b600061291e61291983612994565b612837565b9050919050565b600061293861293383612994565b612841565b9050919050565b600061294a82612951565b9050919050565b600061295c82612987565b9050919050565b600061296f8254612925565b9050919050565b6000601f19601f8301169050919050565b60008160f81b9050919050565b60008160001c9050919050565b6129aa8161284b565b81146129b557600080fd5b50565b6129c18161285d565b81146129cc57600080fd5b50565b6129d881612869565b81146129e357600080fd5b50565b6129ef81612893565b81146129fa57600080fd5b5056fe6a736f6e2868747470733a2f2f707572706c652d656c657068616e742d35362e6c6f63616c74756e6e656c2e6d652f312f44616e6e79292e6e616d65a365627a7a723158201b5ff83585fc2553d3d61306df0fe1fbeb9340dee44059d995b6520302d36aed6c6578706572696d656e74616cf564736f6c634300050c0040",
  "source": "pragma solidity >=0.4.21 <0.6.0;\npragma experimental ABIEncoderV2;\n\nimport \"./provableAPI_0.5.sol\";\n\ncontract Access is usingProvable {\n    address public owner;\n    bytes32 noID = 0;\n    event IDK(bytes32 id);\n    event HOPE(Member mem);\n    event LogNewProvableQuery(string description);\n    event Balance(uint amount, uint moneyNeeded);\n    event QueryRes(string result);\n\n    uint public last_completed_migration;\n    uint public balance;\n\n    struct Modification {\n        string timeStamp;\n        string modType;\n    }\n\n    struct Member {\n        bytes32 id;\n        string name;\n        bool proxyUser;\n        uint256[] mods;\n        uint256[] mTime;\n    }\n\n    struct Researcher {\n        bytes32 id;\n        string name;\n        uint256[] mods;\n        uint256[] mTime;\n    }\n\n    string res;\n\n    mapping(uint256=>string) modMap;\n    mapping(bytes32=>Member) memMap;\n    mapping(bytes32=>Researcher) rMap;\n\n\n    mapping(string=>bool) memName;\n    mapping(string=>bool) rName;\n    Member[] memList;\n    Researcher[] rList;\n\n    constructor() public {\n        owner = msg.sender;\n        modMap[0] = \"POST\";\n        modMap[1] = \"PUT\";\n        modMap[2] = \"GET\";\n        modMap[3] = \"DELETE\";\n        addMember(\"ken\", false);\n        addResearcher(\"Danny\");\n    }\n\n    function __callback(bytes32 myid, string memory result) public {\n       if (msg.sender != provable_cbAddress()) revert(\"Not Enough Funds\");\n       res = result;\n       emit QueryRes(res);\n   }\n   \n    function() payable external {}\n\n\n    modifier isOwner() {\n        if (msg.sender == owner) _;\n    }\n\n    function getAccess() public view {\n        require(msg.sender == owner, \"Access not Granted!\");\n    }\n\n    function memberAccess(string memory _name) public view {\n        require(memName[_name], \"Member does not exist!\");\n    }\n\n    function researcherAccess(string memory _name) public view {\n        require(rName[_name], \"Researcher does not exist!\");\n    }\n\n    function addMember( string memory _name, bool _proxy) public isOwner {\n        bytes32 lunaID = keccak256(abi.encodePacked(_name, _proxy));\n        uint256[] memory mods;\n        Member memory newMember = Member(lunaID, _name, _proxy, mods, mods);\n        memMap[lunaID] = newMember;\n        memName[_name] = true;\n        memList.push(newMember);\n    }\n\n  function addResearcher( string memory _name) public isOwner {\n        bytes32 lunaID = keccak256(abi.encodePacked(_name));\n        uint256[] memory mods;\n        Researcher memory newResearcher = Researcher(lunaID, _name, mods, mods);\n        rMap[lunaID] = newResearcher;\n        rName[_name] = true;\n        rList.push(newResearcher);\n    }\n\n\n    function queryDB() public payable {\n       //emit Balance(address(this).balance, provable_getPrice(\"URL\"));\n       if (provable_getPrice(\"URL\") > address(this).balance) {\n           emit LogNewProvableQuery(\"Provable query was NOT sent, please add some ETH to cover for the query fee\");\n       } else {\n           emit LogNewProvableQuery(\"Provable query was sent, standing by for the answer..\");\n           provable_query(\"URL\", \"json(https://purple-elephant-56.localtunnel.me/1/Danny).name\");\n       }\n   }\n\n\n    function help(uint256 _index) public {\n        emit IDK(memList[_index].id);\n        emit HOPE(memList[_index]);\n    }\n\n\n    function getRes() public pure returns (string memory res) {\n        return res;\n    }\n}\n",
  "sourcePath": "/Users/samsonqian/Documents/GitHub/offchain-api/contracts/Access.sol",
  "compiler": {
    "name": "solc",
    "version": "0.5.12+commit.7709ece9.Emscripten.clang"
  },
  "schemaVersion": "3.0.20",
  "updatedAt": "2020-10-08T06:30:18.340Z",
  "networkType": "ethereum",
  "devdoc": {
    "methods": {}
  },
  "userdoc": {
    "methods": {}
  }
}