{
  "contractName": "Access",
  "abi": [
    {
      "constant": true,
      "inputs": [],
      "name": "last_completed_migration",
      "outputs": [
        {
          "name": "",
          "type": "uint256"
        }
      ],
      "payable": false,
      "stateMutability": "view",
      "type": "function"
    },
    {
      "constant": true,
      "inputs": [],
      "name": "owner",
      "outputs": [
        {
          "name": "",
          "type": "address"
        }
      ],
      "payable": false,
      "stateMutability": "view",
      "type": "function"
    },
    {
      "constant": true,
      "inputs": [],
      "name": "balance",
      "outputs": [
        {
          "name": "",
          "type": "uint256"
        }
      ],
      "payable": false,
      "stateMutability": "view",
      "type": "function"
    },
    {
      "inputs": [],
      "payable": false,
      "stateMutability": "nonpayable",
      "type": "constructor"
    },
    {
      "payable": true,
      "stateMutability": "payable",
      "type": "fallback"
    },
    {
      "anonymous": false,
      "inputs": [
        {
          "indexed": false,
          "name": "id",
          "type": "bytes32"
        }
      ],
      "name": "IDK",
      "type": "event"
    },
    {
      "anonymous": false,
      "inputs": [
        {
          "components": [
            {
              "name": "id",
              "type": "bytes32"
            },
            {
              "name": "name",
              "type": "string"
            },
            {
              "name": "proxyUser",
              "type": "bool"
            },
            {
              "name": "mods",
              "type": "uint256[]"
            },
            {
              "name": "mTime",
              "type": "uint256[]"
            }
          ],
          "indexed": false,
          "name": "mem",
          "type": "tuple"
        }
      ],
      "name": "HOPE",
      "type": "event"
    },
    {
      "anonymous": false,
      "inputs": [
        {
          "indexed": false,
          "name": "description",
          "type": "string"
        }
      ],
      "name": "LogNewProvableQuery",
      "type": "event"
    },
    {
      "anonymous": false,
      "inputs": [
        {
          "indexed": false,
          "name": "amount",
          "type": "uint256"
        },
        {
          "indexed": false,
          "name": "moneyNeeded",
          "type": "uint256"
        }
      ],
      "name": "Balance",
      "type": "event"
    },
    {
      "anonymous": false,
      "inputs": [
        {
          "indexed": false,
          "name": "result",
          "type": "string"
        }
      ],
      "name": "QueryRes",
      "type": "event"
    },
    {
      "constant": false,
      "inputs": [
        {
          "name": "myid",
          "type": "bytes32"
        },
        {
          "name": "result",
          "type": "string"
        }
      ],
      "name": "__callback",
      "outputs": [],
      "payable": false,
      "stateMutability": "nonpayable",
      "type": "function"
    },
    {
      "constant": false,
      "inputs": [
        {
          "name": "_myid",
          "type": "bytes32"
        },
        {
          "name": "_result",
          "type": "string"
        },
        {
          "name": "_proof",
          "type": "bytes"
        }
      ],
      "name": "__callback",
      "outputs": [],
      "payable": false,
      "stateMutability": "nonpayable",
      "type": "function"
    },
    {
      "constant": true,
      "inputs": [],
      "name": "getAccess",
      "outputs": [],
      "payable": false,
      "stateMutability": "view",
      "type": "function"
    },
    {
      "constant": true,
      "inputs": [
        {
          "name": "_name",
          "type": "string"
        }
      ],
      "name": "memberAccess",
      "outputs": [],
      "payable": false,
      "stateMutability": "view",
      "type": "function"
    },
    {
      "constant": true,
      "inputs": [
        {
          "name": "_name",
          "type": "string"
        }
      ],
      "name": "researcherAccess",
      "outputs": [],
      "payable": false,
      "stateMutability": "view",
      "type": "function"
    },
    {
      "constant": false,
      "inputs": [
        {
          "name": "_name",
          "type": "string"
        },
        {
          "name": "_proxy",
          "type": "bool"
        }
      ],
      "name": "addMember",
      "outputs": [],
      "payable": false,
      "stateMutability": "nonpayable",
      "type": "function"
    },
    {
      "constant": false,
      "inputs": [
        {
          "name": "_name",
          "type": "string"
        }
      ],
      "name": "addResearcher",
      "outputs": [],
      "payable": false,
      "stateMutability": "nonpayable",
      "type": "function"
    },
    {
      "constant": false,
      "inputs": [],
      "name": "queryDB",
      "outputs": [],
      "payable": true,
      "stateMutability": "payable",
      "type": "function"
    },
    {
      "constant": false,
      "inputs": [
        {
          "name": "_index",
          "type": "uint256"
        }
      ],
      "name": "help",
      "outputs": [],
      "payable": false,
      "stateMutability": "nonpayable",
      "type": "function"
    }
  ],
  "bytecode": "0x60806040526000801b6006553480156200001857600080fd5b5033600560006101000a81548173ffffffffffffffffffffffffffffffffffffffff021916908373ffffffffffffffffffffffffffffffffffffffff1602179055506040518060400160405280600481526020017f504f535400000000000000000000000000000000000000000000000000000000815250600a60008081526020019081526020016000209080519060200190620000b8929190620006ca565b506040518060400160405280600381526020017f5055540000000000000000000000000000000000000000000000000000000000815250600a600060018152602001908152602001600020908051906020019062000118929190620006ca565b506040518060400160405280600381526020017f4745540000000000000000000000000000000000000000000000000000000000815250600a600060028152602001908152602001600020908051906020019062000178929190620006ca565b506040518060400160405280600681526020017f44454c4554450000000000000000000000000000000000000000000000000000815250600a6000600381526020019081526020016000209080519060200190620001d8929190620006ca565b50620002216040518060400160405280600381526020017f6b656e000000000000000000000000000000000000000000000000000000000081525060006200026d60201b60201c565b620002676040518060400160405280600581526020017f44616e6e79000000000000000000000000000000000000000000000000000000815250620004c160201b60201c565b620009d5565b600560009054906101000a900473ffffffffffffffffffffffffffffffffffffffff1673ffffffffffffffffffffffffffffffffffffffff163373ffffffffffffffffffffffffffffffffffffffff161415620004bd5760008282604051602001620002db9291906200091c565b6040516020818303038152906040528051906020012090506060620002ff62000751565b6040518060a00160405280848152602001868152602001851515815260200183815260200183815250905080600b60008581526020019081526020016000206000820151816000015560208201518160010190805190602001906200036692919062000785565b5060408201518160020160006101000a81548160ff0219169083151502179055506060820151816003019080519060200190620003a59291906200080c565b506080820151816004019080519060200190620003c49291906200080c565b509050506001600d86604051620003dc919062000903565b908152602001604051809103902060006101000a81548160ff021916908315150217905550600f81908060018154018082558091505090600182039060005260206000209060050201600090919290919091506000820151816000015560208201518160010190805190602001906200045792919062000785565b5060408201518160020160006101000a81548160ff0219169083151502179055506060820151816003019080519060200190620004969291906200080c565b506080820151816004019080519060200190620004b59291906200080c565b505050505050505b5050565b600560009054906101000a900473ffffffffffffffffffffffffffffffffffffffff1673ffffffffffffffffffffffffffffffffffffffff163373ffffffffffffffffffffffffffffffffffffffff161415620006c7576000816040516020016200052d919062000903565b6040516020818303038152906040528051906020012090506060620005516200085e565b604051806080016040528084815260200185815260200183815260200183815250905080600c6000858152602001908152602001600020600082015181600001556020820151816001019080519060200190620005b092919062000785565b506040820151816002019080519060200190620005cf9291906200080c565b506060820151816003019080519060200190620005ee9291906200080c565b509050506001600e8560405162000606919062000903565b908152602001604051809103902060006101000a81548160ff021916908315150217905550601081908060018154018082558091505090600182039060005260206000209060040201600090919290919091506000820151816000015560208201518160010190805190602001906200068192919062000785565b506040820151816002019080519060200190620006a09291906200080c565b506060820151816003019080519060200190620006bf9291906200080c565b505050505050505b50565b828054600181600116156101000203166002900490600052602060002090601f016020900481019282601f106200070d57805160ff19168380011785556200073e565b828001600101855582156200073e579182015b828111156200073d57825182559160200191906001019062000720565b5b5090506200074d919062000889565b5090565b6040518060a00160405280600080191681526020016060815260200160001515815260200160608152602001606081525090565b828054600181600116156101000203166002900490600052602060002090601f016020900481019282601f10620007c857805160ff1916838001178555620007f9565b82800160010185558215620007f9579182015b82811115620007f8578251825591602001919060010190620007db565b5b50905062000808919062000889565b5090565b8280548282559060005260206000209081019282156200084b579160200282015b828111156200084a5782518255916020019190600101906200082d565b5b5090506200085a919062000889565b5090565b6040518060800160405280600080191681526020016060815260200160608152602001606081525090565b620008ae91905b80821115620008aa57600081600090555060010162000890565b5090565b90565b620008c6620008c0826200095e565b620009a0565b82525050565b6000620008d98262000948565b620008e5818562000953565b9350620008f78185602086016200096a565b80840191505092915050565b6000620009118284620008cc565b915081905092915050565b60006200092a8285620008cc565b9150620009388284620008b1565b6001820191508190509392505050565b600081519050919050565b600081905092915050565b60008115159050919050565b60005b838110156200098a5780820151818401526020810190506200096d565b838111156200099a576000848401525b50505050565b6000620009ad82620009b4565b9050919050565b6000620009c182620009c8565b9050919050565b60008160f81b9050919050565b612a0b80620009e56000396000f3fe6080604052600436106100a75760003560e01c806392c683891161006457806392c6838914610184578063b69ef8a8146101ad578063cb5dd855146101d8578063d0d07bb514610201578063e86438c21461022a578063f7ca843114610253576100a7565b8063180f85fc146100a957806327dc297e146100b357806338bbfa50146100dc578063445df0ac14610105578063801aaef3146101305780638da5cb5b14610159575b005b6100b161026a565b005b3480156100bf57600080fd5b506100da60048036036100d59190810190611df3565b610390565b005b3480156100e857600080fd5b5061010360048036036100fe9190810190611e47565b610444565b005b34801561011157600080fd5b5061011a610467565b604051610127919061269d565b60405180910390f35b34801561013c57600080fd5b5061015760048036036101529190810190611ec6565b61046d565b005b34801561016557600080fd5b5061016e6104db565b60405161017b91906124fc565b60405180910390f35b34801561019057600080fd5b506101ab60048036036101a69190810190611f07565b610501565b005b3480156101b957600080fd5b506101c2610742565b6040516101cf919061269d565b60405180910390f35b3480156101e457600080fd5b506101ff60048036036101fa9190810190611f5b565b610748565b005b34801561020d57600080fd5b5061022860048036036102239190810190611ec6565b6107f1565b005b34801561023657600080fd5b50610251600480360361024c9190810190611ec6565b61085f565b005b34801561025f57600080fd5b50610268610a55565b005b3073ffffffffffffffffffffffffffffffffffffffff16316102c06040518060400160405280600381526020017f55524c0000000000000000000000000000000000000000000000000000000000815250610ae7565b1115610300577fc4dc360d0a9c0677a3379ae0a3d81e887f761e65fdf3d7e00859d1bcd3c473896040516102f3906125db565b60405180910390a161038e565b7fc4dc360d0a9c0677a3379ae0a3d81e887f761e65fdf3d7e00859d1bcd3c4738960405161032d906125bb565b60405180910390a161038c6040518060400160405280600381526020017f55524c00000000000000000000000000000000000000000000000000000000008152506040518060600160405280603c8152602001612996603c9139610e0a565b505b565b610398611209565b73ffffffffffffffffffffffffffffffffffffffff163373ffffffffffffffffffffffffffffffffffffffff1614610405576040517f08c379a00000000000000000000000000000000000000000000000000000000081526004016103fc9061261b565b60405180910390fd5b8090507f3be1e4151697cd0a5c68a673e06a826bd4161812e0d61969c070c9ec651173cc60096040516104389190612599565b60405180910390a15050565b6000801b600360008060001b815260200190815260200160002081905550505050565b60075481565b600d8160405161047d91906124bd565b908152602001604051809103902060009054906101000a900460ff166104d8576040517f08c379a00000000000000000000000000000000000000000000000000000000081526004016104cf906125fb565b60405180910390fd5b50565b600560009054906101000a900473ffffffffffffffffffffffffffffffffffffffff1681565b600560009054906101000a900473ffffffffffffffffffffffffffffffffffffffff1673ffffffffffffffffffffffffffffffffffffffff163373ffffffffffffffffffffffffffffffffffffffff16141561073e576000828260405160200161056c9291906124d4565b604051602081830303815290604052805190602001209050606061058e611aaa565b6040518060a00160405280848152602001868152602001851515815260200183815260200183815250905080600b60008581526020019081526020016000206000820151816000015560208201518160010190805190602001906105f3929190611ade565b5060408201518160020160006101000a81548160ff0219169083151502179055506060820151816003019080519060200190610630929190611b5e565b50608082015181600401908051906020019061064d929190611b5e565b509050506001600d8660405161066391906124bd565b908152602001604051809103902060006101000a81548160ff021916908315150217905550600f81908060018154018082558091505090600182039060005260206000209060050201600090919290919091506000820151816000015560208201518160010190805190602001906106dc929190611ade565b5060408201518160020160006101000a81548160ff0219169083151502179055506060820151816003019080519060200190610719929190611b5e565b506080820151816004019080519060200190610736929190611b5e565b505050505050505b5050565b60085481565b7ff97925f943254b10f6ae3c29b6823f87c74295eb89b2f3d9d603b55470a5b5b1600f828154811061077657fe5b9060005260206000209060050201600001546040516107959190612517565b60405180910390a17f15bf8becc2c08a5a410f3bba573ed78922f437a1786dd3aa0429fa0286237c36600f82815481106107cb57fe5b90600052602060002090600502016040516107e6919061267b565b60405180910390a150565b600e8160405161080191906124bd565b908152602001604051809103902060009054906101000a900460ff1661085c576040517f08c379a00000000000000000000000000000000000000000000000000000000081526004016108539061263b565b60405180910390fd5b50565b600560009054906101000a900473ffffffffffffffffffffffffffffffffffffffff1673ffffffffffffffffffffffffffffffffffffffff163373ffffffffffffffffffffffffffffffffffffffff161415610a52576000816040516020016108c891906124bd565b60405160208183030381529060405280519060200120905060606108ea611bab565b604051806080016040528084815260200185815260200183815260200183815250905080600c6000858152602001908152602001600020600082015181600001556020820151816001019080519060200190610947929190611ade565b506040820151816002019080519060200190610964929190611b5e565b506060820151816003019080519060200190610981929190611b5e565b509050506001600e8560405161099791906124bd565b908152602001604051809103902060006101000a81548160ff02191690831515021790555060108190806001815401808255809150509060018203906000526020600020906004020160009091929091909150600082015181600001556020820151816001019080519060200190610a10929190611ade565b506040820151816002019080519060200190610a2d929190611b5e565b506060820151816003019080519060200190610a4a929190611b5e565b505050505050505b50565b600560009054906101000a900473ffffffffffffffffffffffffffffffffffffffff1673ffffffffffffffffffffffffffffffffffffffff163373ffffffffffffffffffffffffffffffffffffffff1614610ae5576040517f08c379a0000000000000000000000000000000000000000000000000000000008152600401610adc9061265b565b60405180910390fd5b565b60008073ffffffffffffffffffffffffffffffffffffffff16600160009054906101000a900473ffffffffffffffffffffffffffffffffffffffff1673ffffffffffffffffffffffffffffffffffffffff161480610b6f57506000610b6d600160009054906101000a900473ffffffffffffffffffffffffffffffffffffffff1661151d565b145b15610b8057610b7e6000611528565b505b600160009054906101000a900473ffffffffffffffffffffffffffffffffffffffff1673ffffffffffffffffffffffffffffffffffffffff166338cc48316040518163ffffffff1660e01b8152600401602060405180830381600087803b158015610bea57600080fd5b505af1158015610bfe573d6000803e3d6000fd5b505050506040513d601f19601f82011682018060405250610c229190810190611da1565b73ffffffffffffffffffffffffffffffffffffffff166000809054906101000a900473ffffffffffffffffffffffffffffffffffffffff1673ffffffffffffffffffffffffffffffffffffffff1614610d5757600160009054906101000a900473ffffffffffffffffffffffffffffffffffffffff1673ffffffffffffffffffffffffffffffffffffffff166338cc48316040518163ffffffff1660e01b8152600401602060405180830381600087803b158015610cdf57600080fd5b505af1158015610cf3573d6000803e3d6000fd5b505050506040513d601f19601f82011682018060405250610d179190810190611da1565b6000806101000a81548173ffffffffffffffffffffffffffffffffffffffff021916908373ffffffffffffffffffffffffffffffffffffffff1602179055505b6000809054906101000a900473ffffffffffffffffffffffffffffffffffffffff1673ffffffffffffffffffffffffffffffffffffffff1663524f3889836040518263ffffffff1660e01b8152600401610db19190612577565b602060405180830381600087803b158015610dcb57600080fd5b505af1158015610ddf573d6000803e3d6000fd5b505050506040513d601f19601f82011682018060405250610e039190810190611f84565b9050919050565b60008073ffffffffffffffffffffffffffffffffffffffff16600160009054906101000a900473ffffffffffffffffffffffffffffffffffffffff1673ffffffffffffffffffffffffffffffffffffffff161480610e9257506000610e90600160009054906101000a900473ffffffffffffffffffffffffffffffffffffffff1661151d565b145b15610ea357610ea16000611528565b505b600160009054906101000a900473ffffffffffffffffffffffffffffffffffffffff1673ffffffffffffffffffffffffffffffffffffffff166338cc48316040518163ffffffff1660e01b8152600401602060405180830381600087803b158015610f0d57600080fd5b505af1158015610f21573d6000803e3d6000fd5b505050506040513d601f19601f82011682018060405250610f459190810190611da1565b73ffffffffffffffffffffffffffffffffffffffff166000809054906101000a900473ffffffffffffffffffffffffffffffffffffffff1673ffffffffffffffffffffffffffffffffffffffff161461107a57600160009054906101000a900473ffffffffffffffffffffffffffffffffffffffff1673ffffffffffffffffffffffffffffffffffffffff166338cc48316040518163ffffffff1660e01b8152600401602060405180830381600087803b15801561100257600080fd5b505af1158015611016573d6000803e3d6000fd5b505050506040513d601f19601f8201168201806040525061103a9190810190611da1565b6000806101000a81548173ffffffffffffffffffffffffffffffffffffffff021916908373ffffffffffffffffffffffffffffffffffffffff1602179055505b60008060009054906101000a900473ffffffffffffffffffffffffffffffffffffffff1673ffffffffffffffffffffffffffffffffffffffff1663524f3889856040518263ffffffff1660e01b81526004016110d69190612577565b602060405180830381600087803b1580156110f057600080fd5b505af1158015611104573d6000803e3d6000fd5b505050506040513d601f19601f820116820180604052506111289190810190611f84565b905062030d403a02670de0b6b3a76400000181111561114d576000801b915050611203565b6000809054906101000a900473ffffffffffffffffffffffffffffffffffffffff1673ffffffffffffffffffffffffffffffffffffffff1663adf59f9982600087876040518563ffffffff1660e01b81526004016111ad93929190612532565b6020604051808303818588803b1580156111c657600080fd5b505af11580156111da573d6000803e3d6000fd5b50505050506040513d601f19601f820116820180604052506111ff9190810190611dca565b9150505b92915050565b60008073ffffffffffffffffffffffffffffffffffffffff16600160009054906101000a900473ffffffffffffffffffffffffffffffffffffffff1673ffffffffffffffffffffffffffffffffffffffff1614806112915750600061128f600160009054906101000a900473ffffffffffffffffffffffffffffffffffffffff1661151d565b145b156112a2576112a06000611528565b505b600160009054906101000a900473ffffffffffffffffffffffffffffffffffffffff1673ffffffffffffffffffffffffffffffffffffffff166338cc48316040518163ffffffff1660e01b8152600401602060405180830381600087803b15801561130c57600080fd5b505af1158015611320573d6000803e3d6000fd5b505050506040513d601f19601f820116820180604052506113449190810190611da1565b73ffffffffffffffffffffffffffffffffffffffff166000809054906101000a900473ffffffffffffffffffffffffffffffffffffffff1673ffffffffffffffffffffffffffffffffffffffff161461147957600160009054906101000a900473ffffffffffffffffffffffffffffffffffffffff1673ffffffffffffffffffffffffffffffffffffffff166338cc48316040518163ffffffff1660e01b8152600401602060405180830381600087803b15801561140157600080fd5b505af1158015611415573d6000803e3d6000fd5b505050506040513d601f19601f820116820180604052506114399190810190611da1565b6000806101000a81548173ffffffffffffffffffffffffffffffffffffffff021916908373ffffffffffffffffffffffffffffffffffffffff1602179055505b6000809054906101000a900473ffffffffffffffffffffffffffffffffffffffff1673ffffffffffffffffffffffffffffffffffffffff1663c281d19e6040518163ffffffff1660e01b815260040160206040518083038186803b1580156114e057600080fd5b505afa1580156114f4573d6000803e3d6000fd5b505050506040513d601f19601f820116820180604052506115189190810190611da1565b905090565b6000813b9050919050565b6000611532611539565b9050919050565b600080611559731d3b2638a7cc9f2cb3d298a3da7a90b67e5506ed61151d565b11156115fb57731d3b2638a7cc9f2cb3d298a3da7a90b67e5506ed600160006101000a81548173ffffffffffffffffffffffffffffffffffffffff021916908373ffffffffffffffffffffffffffffffffffffffff1602179055506115f26040518060400160405280600b81526020017f6574685f6d61696e6e6574000000000000000000000000000000000000000000815250611a90565b60019050611a8d565b600061161a73c03a2615d5efaf5f49f60b7bb6583eaec212fdf161151d565b11156116bc5773c03a2615d5efaf5f49f60b7bb6583eaec212fdf1600160006101000a81548173ffffffffffffffffffffffffffffffffffffffff021916908373ffffffffffffffffffffffffffffffffffffffff1602179055506116b36040518060400160405280600c81526020017f6574685f726f707374656e330000000000000000000000000000000000000000815250611a90565b60019050611a8d565b60006116db73b7a07bcf2ba2f2703b24c0691b5278999c59ac7e61151d565b111561177d5773b7a07bcf2ba2f2703b24c0691b5278999c59ac7e600160006101000a81548173ffffffffffffffffffffffffffffffffffffffff021916908373ffffffffffffffffffffffffffffffffffffffff1602179055506117746040518060400160405280600981526020017f6574685f6b6f76616e0000000000000000000000000000000000000000000000815250611a90565b60019050611a8d565b600061179c73146500cfd35b22e4a392fe0adc06de1a1368ed4861151d565b111561183e5773146500cfd35b22e4a392fe0adc06de1a1368ed48600160006101000a81548173ffffffffffffffffffffffffffffffffffffffff021916908373ffffffffffffffffffffffffffffffffffffffff1602179055506118356040518060400160405280600b81526020017f6574685f72696e6b656279000000000000000000000000000000000000000000815250611a90565b60019050611a8d565b600061185d73a2998efd205fb9d4b4963afb70778d6354ad3a4161151d565b11156118ff5773a2998efd205fb9d4b4963afb70778d6354ad3a41600160006101000a81548173ffffffffffffffffffffffffffffffffffffffff021916908373ffffffffffffffffffffffffffffffffffffffff1602179055506118f66040518060400160405280600a81526020017f6574685f676f65726c6900000000000000000000000000000000000000000000815250611a90565b60019050611a8d565b600061191e736f485c8bf6fc43ea212e93bbf8ce046c7f1cb47561151d565b111561198257736f485c8bf6fc43ea212e93bbf8ce046c7f1cb475600160006101000a81548173ffffffffffffffffffffffffffffffffffffffff021916908373ffffffffffffffffffffffffffffffffffffffff16021790555060019050611a8d565b60006119a17320e12a1f859b3feae5fb2a0a32c18f5a65555bbf61151d565b1115611a05577320e12a1f859b3feae5fb2a0a32c18f5a65555bbf600160006101000a81548173ffffffffffffffffffffffffffffffffffffffff021916908373ffffffffffffffffffffffffffffffffffffffff16021790555060019050611a8d565b6000611a247351efaf4c8b3c9afbd5ab9f4bbc82784ab6ef8faa61151d565b1115611a88577351efaf4c8b3c9afbd5ab9f4bbc82784ab6ef8faa600160006101000a81548173ffffffffffffffffffffffffffffffffffffffff021916908373ffffffffffffffffffffffffffffffffffffffff16021790555060019050611a8d565b600090505b90565b8060029080519060200190611aa6929190611bd6565b5050565b6040518060a00160405280600080191681526020016060815260200160001515815260200160608152602001606081525090565b828054600181600116156101000203166002900490600052602060002090601f016020900481019282601f10611b1f57805160ff1916838001178555611b4d565b82800160010185558215611b4d579182015b82811115611b4c578251825591602001919060010190611b31565b5b509050611b5a9190611c56565b5090565b828054828255906000526020600020908101928215611b9a579160200282015b82811115611b99578251825591602001919060010190611b7e565b5b509050611ba79190611c56565b5090565b6040518060800160405280600080191681526020016060815260200160608152602001606081525090565b828054600181600116156101000203166002900490600052602060002090601f016020900481019282601f10611c1757805160ff1916838001178555611c45565b82800160010185558215611c45579182015b82811115611c44578251825591602001919060010190611c29565b5b509050611c529190611c56565b5090565b611c7891905b80821115611c74576000816000905550600101611c5c565b5090565b90565b600081519050611c8a81612939565b92915050565b600081359050611c9f81612950565b92915050565b600081359050611cb481612967565b92915050565b600081519050611cc981612967565b92915050565b600082601f830112611ce057600080fd5b8135611cf3611cee826126e5565b6126b8565b91508082526020830160208301858383011115611d0f57600080fd5b611d1a838284612847565b50505092915050565b600082601f830112611d3457600080fd5b8135611d47611d4282612711565b6126b8565b91508082526020830160208301858383011115611d6357600080fd5b611d6e838284612847565b50505092915050565b600081359050611d868161297e565b92915050565b600081519050611d9b8161297e565b92915050565b600060208284031215611db357600080fd5b6000611dc184828501611c7b565b91505092915050565b600060208284031215611ddc57600080fd5b6000611dea84828501611cba565b91505092915050565b60008060408385031215611e0657600080fd5b6000611e1485828601611ca5565b925050602083013567ffffffffffffffff811115611e3157600080fd5b611e3d85828601611d23565b9150509250929050565b600080600060608486031215611e5c57600080fd5b6000611e6a86828701611ca5565b935050602084013567ffffffffffffffff811115611e8757600080fd5b611e9386828701611d23565b925050604084013567ffffffffffffffff811115611eb057600080fd5b611ebc86828701611ccf565b9150509250925092565b600060208284031215611ed857600080fd5b600082013567ffffffffffffffff811115611ef257600080fd5b611efe84828501611d23565b91505092915050565b60008060408385031215611f1a57600080fd5b600083013567ffffffffffffffff811115611f3457600080fd5b611f4085828601611d23565b9250506020611f5185828601611c90565b9150509250929050565b600060208284031215611f6d57600080fd5b6000611f7b84828501611d77565b91505092915050565b600060208284031215611f9657600080fd5b6000611fa484828501611d8c565b91505092915050565b6000611fb9838361249f565b60208301905092915050565b611fce816127e3565b82525050565b6000611fdf82612761565b611fe98185612784565b9350611ff48361273d565b8060005b8381101561202c57612009826128fb565b6120138882611fad565b975061201e83612777565b925050600181019050611ff8565b5085935050505092915050565b612042816127f5565b82525050565b612059612054826127f5565b6128d7565b82525050565b61206881612801565b82525050565b61207781612801565b82525050565b61208681612835565b82525050565b60006120978261276c565b6120a181856127a6565b93506120b1818560208601612856565b6120ba8161290e565b840191505092915050565b60006120d08261276c565b6120da81856127b7565b93506120ea818560208601612856565b80840191505092915050565b60008154600181166000811461211357600181146121395761217d565b607f60028304166121248187612795565b955060ff19831686526020860193505061217d565b600282046121478187612795565b95506121528561274f565b60005b8281101561217457815481890152600182019150602081019050612155565b80880195505050505b505092915050565b6000815460018116600081146121a257600181146121c85761220c565b607f60028304166121b381876127a6565b955060ff19831686526020860193505061220c565b600282046121d681876127a6565b95506121e18561274f565b60005b82811015612203578154818901526001820191506020810190506121e4565b80880195505050505b505092915050565b60006122216035836127a6565b91507f50726f7661626c65207175657279207761732073656e742c207374616e64696e60008301527f6720627920666f722074686520616e737765722e2e00000000000000000000006020830152604082019050919050565b6000612287604b836127a6565b91507f50726f7661626c6520717565727920776173204e4f542073656e742c20706c6560008301527f6173652061646420736f6d652045544820746f20636f76657220666f7220746860208301527f65207175657279206665650000000000000000000000000000000000000000006040830152606082019050919050565b60006123136016836127a6565b91507f4d656d62657220646f6573206e6f7420657869737421000000000000000000006000830152602082019050919050565b60006123536010836127a6565b91507f4e6f7420456e6f7567682046756e6473000000000000000000000000000000006000830152602082019050919050565b6000612393601a836127a6565b91507f5265736561726368657220646f6573206e6f74206578697374210000000000006000830152602082019050919050565b60006123d36013836127a6565b91507f416363657373206e6f74204772616e74656421000000000000000000000000006000830152602082019050919050565b600060a08301600080840154905061241d816128a3565b61242a600087018261205f565b5060018401858303602087015261244183826120f6565b9250506002840154905061245481612889565b6124616040870182612039565b506003840185830360608701526124788382611fd4565b9250506004840185830360808701526124918382611fd4565b925050819250505092915050565b6124a88161282b565b82525050565b6124b78161282b565b82525050565b60006124c982846120c5565b915081905092915050565b60006124e082856120c5565b91506124ec8284612048565b6001820191508190509392505050565b60006020820190506125116000830184611fc5565b92915050565b600060208201905061252c600083018461206e565b92915050565b6000606082019050612547600083018661207d565b8181036020830152612559818561208c565b9050818103604083015261256d818461208c565b9050949350505050565b60006020820190508181036000830152612591818461208c565b905092915050565b600060208201905081810360008301526125b38184612185565b905092915050565b600060208201905081810360008301526125d481612214565b9050919050565b600060208201905081810360008301526125f48161227a565b9050919050565b6000602082019050818103600083015261261481612306565b9050919050565b6000602082019050818103600083015261263481612346565b9050919050565b6000602082019050818103600083015261265481612386565b9050919050565b60006020820190508181036000830152612674816123c6565b9050919050565b600060208201905081810360008301526126958184612406565b905092915050565b60006020820190506126b260008301846124ae565b92915050565b6000604051905081810181811067ffffffffffffffff821117156126db57600080fd5b8060405250919050565b600067ffffffffffffffff8211156126fc57600080fd5b601f19601f8301169050602081019050919050565b600067ffffffffffffffff82111561272857600080fd5b601f19601f8301169050602081019050919050565b60008160005260206000209050919050565b60008160005260206000209050919050565b600081549050919050565b600081519050919050565b6000600182019050919050565b600082825260208201905092915050565b600082825260208201905092915050565b600082825260208201905092915050565b600081905092915050565b600060ff82169050919050565b6000819050919050565b6000819050919050565b60006127ee8261280b565b9050919050565b60008115159050919050565b6000819050919050565b600073ffffffffffffffffffffffffffffffffffffffff82169050919050565b6000819050919050565b60006128408261282b565b9050919050565b82818337600083830152505050565b60005b83811015612874578082015181840152602081019050612859565b83811115612883576000848401525b50505050565b600061289c6128978361292c565b6127c2565b9050919050565b60006128b66128b18361292c565b6127cf565b9050919050565b60006128d06128cb8361292c565b6127d9565b9050919050565b60006128e2826128e9565b9050919050565b60006128f48261291f565b9050919050565b600061290782546128bd565b9050919050565b6000601f19601f8301169050919050565b60008160f81b9050919050565b60008160001c9050919050565b612942816127e3565b811461294d57600080fd5b50565b612959816127f5565b811461296457600080fd5b50565b61297081612801565b811461297b57600080fd5b50565b6129878161282b565b811461299257600080fd5b5056fe6a736f6e2868747470733a2f2f77686974652d6f776c2d35382e6c6f63616c74756e6e656c2e6d652f75736572732f312f44616e6e79292e6e616d65a265627a7a723058204b96c7cdc33559e2b885154a82f7f77e103b66f8ec918d827793f44e66e9f3626c6578706572696d656e74616cf50037",
  "source": "pragma solidity >=0.4.21 <0.6.0;\npragma experimental ABIEncoderV2;\n\nimport \"./provableAPI_0.5.sol\";\n\ncontract Access is usingProvable {\n    address public owner;\n    bytes32 noID = 0;\n    event IDK(bytes32 id);\n    event HOPE(Member mem);\n    event LogNewProvableQuery(string description);\n    event Balance(uint amount, uint moneyNeeded);\n    event QueryRes(string result);\n\n    uint public last_completed_migration;\n    uint public balance;\n\n    struct Modification {\n        string timeStamp;\n        string modType;\n    }\n\n    struct Member {\n        bytes32 id;\n        string name;\n        bool proxyUser;\n        uint256[] mods;\n        uint256[] mTime;\n    }\n\n    struct Researcher {\n        bytes32 id;\n        string name;\n        uint256[] mods;\n        uint256[] mTime;\n    }\n\n    string res;\n\n    mapping(uint256=>string) modMap;\n    mapping(bytes32=>Member) memMap;\n    mapping(bytes32=>Researcher) rMap;\n\n\n    mapping(string=>bool) memName;\n    mapping(string=>bool) rName;\n    Member[] memList;\n    Researcher[] rList;\n\n    constructor() public {\n        owner = msg.sender;\n        modMap[0] = \"POST\";\n        modMap[1] = \"PUT\";\n        modMap[2] = \"GET\";\n        modMap[3] = \"DELETE\";\n        addMember(\"ken\", false);\n        addResearcher(\"Danny\");\n    }\n\n    function __callback(bytes32 myid, string memory result) public {\n       if (msg.sender != provable_cbAddress()) revert(\"Not Enough Funds\");\n       result = result;\n       emit QueryRes(res);\n   }\n   \n    function() payable external {}\n\n\n    modifier isOwner() {\n        if (msg.sender == owner) _;\n    }\n\n    function getAccess() public view {\n        require(msg.sender == owner, \"Access not Granted!\");\n    }\n\n    function memberAccess(string memory _name) public view {\n        require(memName[_name], \"Member does not exist!\");\n    }\n\n    function researcherAccess(string memory _name) public view {\n        require(rName[_name], \"Researcher does not exist!\");\n    }\n\n    function addMember( string memory _name, bool _proxy) public isOwner {\n        bytes32 lunaID = keccak256(abi.encodePacked(_name, _proxy));\n        uint256[] memory mods;\n        Member memory newMember = Member(lunaID, _name, _proxy, mods, mods);\n        memMap[lunaID] = newMember;\n        memName[_name] = true;\n        memList.push(newMember);\n    }\n\n  function addResearcher( string memory _name) public isOwner {\n        bytes32 lunaID = keccak256(abi.encodePacked(_name));\n        uint256[] memory mods;\n        Researcher memory newResearcher = Researcher(lunaID, _name, mods, mods);\n        rMap[lunaID] = newResearcher;\n        rName[_name] = true;\n        rList.push(newResearcher);\n    }\n\n\n    function queryDB() public payable {\n       //emit Balance(address(this).balance, provable_getPrice(\"URL\"));\n       if (provable_getPrice(\"URL\") > address(this).balance) {\n           emit LogNewProvableQuery(\"Provable query was NOT sent, please add some ETH to cover for the query fee\");\n       } else {\n           emit LogNewProvableQuery(\"Provable query was sent, standing by for the answer..\");\n           provable_query(\"URL\", \"json(https://white-owl-58.localtunnel.me/users/1/Danny).name\");\n       }\n   }\n\n\n    function help(uint256 _index) public {\n        emit IDK(memList[_index].id);\n        emit HOPE(memList[_index]);\n    }\n\n    \n\n}\n",
  "sourcePath": "/Users/kenmiyachi/BlockLAB/offchain-api/contracts/Access.sol",
  "compiler": {
    "name": "solc",
    "version": "0.5.8+commit.23d335f2.Emscripten.clang"
  },
  "schemaVersion": "3.0.12",
  "updatedAt": "2019-12-05T02:07:57.033Z",
  "devdoc": {
    "methods": {}
  },
  "userdoc": {
    "methods": {}
  }
}