{
  "contractName": "Access",
  "abi": [
    {
      "constant": true,
      "inputs": [],
      "name": "owner",
      "outputs": [
        {
          "name": "",
          "type": "address"
        }
      ],
      "payable": false,
      "stateMutability": "view",
      "type": "function"
    },
    {
      "inputs": [],
      "payable": false,
      "stateMutability": "nonpayable",
      "type": "constructor"
    },
    {
      "constant": true,
      "inputs": [],
      "name": "getAccess",
      "outputs": [],
      "payable": false,
      "stateMutability": "view",
      "type": "function"
    },
    {
      "constant": true,
      "inputs": [
        {
          "name": "_id",
          "type": "bytes32"
        }
      ],
      "name": "memberAccess",
      "outputs": [],
      "payable": false,
      "stateMutability": "view",
      "type": "function"
    },
    {
      "constant": true,
      "inputs": [
        {
          "name": "_id",
          "type": "bytes32"
        }
      ],
      "name": "researcherAccess",
      "outputs": [],
      "payable": false,
      "stateMutability": "view",
      "type": "function"
    },
    {
      "constant": false,
      "inputs": [
        {
          "name": "_name",
          "type": "string"
        },
        {
          "name": "_proxy",
          "type": "bool"
        }
      ],
      "name": "addMember",
      "outputs": [],
      "payable": false,
      "stateMutability": "nonpayable",
      "type": "function"
    },
    {
      "constant": false,
      "inputs": [
        {
          "name": "_name",
          "type": "string"
        }
      ],
      "name": "addResearcher",
      "outputs": [],
      "payable": false,
      "stateMutability": "nonpayable",
      "type": "function"
    }
  ],
  "bytecode": "0x60806040526000801b60015534801561001757600080fd5b50336000806101000a81548173ffffffffffffffffffffffffffffffffffffffff021916908373ffffffffffffffffffffffffffffffffffffffff16021790555061097d806100676000396000f3fe608060405234801561001057600080fd5b50600436106100625760003560e01c80638da5cb5b1461006757806392c68389146100b15780639db316ef14610178578063d8da5ce6146101a6578063e86438c2146101d4578063f7ca84311461028f575b600080fd5b61006f610299565b604051808273ffffffffffffffffffffffffffffffffffffffff1673ffffffffffffffffffffffffffffffffffffffff16815260200191505060405180910390f35b610176600480360360408110156100c757600080fd5b81019080803590602001906401000000008111156100e457600080fd5b8201836020820111156100f657600080fd5b8035906020019184600183028401116401000000008311171561011857600080fd5b91908080601f016020809104026020016040519081016040528093929190818152602001838380828437600081840152601f19601f8201169050808301925050505050505091929192908035151590602001909291905050506102be565b005b6101a46004803603602081101561018e57600080fd5b81019080803590602001909291905050506104df565b005b6101d2600480360360208110156101bc57600080fd5b8101908080359060200190929190505050610570565b005b61028d600480360360208110156101ea57600080fd5b810190808035906020019064010000000081111561020757600080fd5b82018360208201111561021957600080fd5b8035906020019184600183028401116401000000008311171561023b57600080fd5b91908080601f016020809104026020016040519081016040528093929190818152602001838380828437600081840152601f19601f820116905080830192505050505050509192919290505050610601565b005b6102976107ca565b005b6000809054906101000a900473ffffffffffffffffffffffffffffffffffffffff1681565b6000809054906101000a900473ffffffffffffffffffffffffffffffffffffffff1673ffffffffffffffffffffffffffffffffffffffff163373ffffffffffffffffffffffffffffffffffffffff1614156104db57600082826040516020018083805190602001908083835b6020831061034d578051825260208201915060208101905060208303925061032a565b6001836020036101000a038019825116818451168082178552505050505050905001821515151560f81b81526001019250505060405160208183030381529060405280519060200120905060606103a261088e565b6040518060800160405280848152602001851515815260200183815260200183815250905080600260008581526020019081526020016000206000820151816000015560208201518160010160006101000a81548160ff02191690831515021790555060408201518160020190805190602001906104219291906108bb565b50606082015181600301908051906020019061043e9291906108bb565b50905050600481908060018154018082558091505090600182039060005260206000209060040201600090919290919091506000820151816000015560208201518160010160006101000a81548160ff02191690831515021790555060408201518160020190805190602001906104b69291906108bb565b5060608201518160030190805190602001906104d39291906108bb565b505050505050505b5050565b6001546003600083815260200190815260200160002060000154141561056d576040517f08c379a000000000000000000000000000000000000000000000000000000000815260040180806020018281038252601a8152602001807f5265736561726368657220646f6573206e6f742065786973742100000000000081525060200191505060405180910390fd5b50565b600154600260008381526020019081526020016000206000015414156105fe576040517f08c379a00000000000000000000000000000000000000000000000000000000081526004018080602001828103825260168152602001807f4d656d62657220646f6573206e6f74206578697374210000000000000000000081525060200191505060405180910390fd5b50565b6000809054906101000a900473ffffffffffffffffffffffffffffffffffffffff1673ffffffffffffffffffffffffffffffffffffffff163373ffffffffffffffffffffffffffffffffffffffff1614156107c7576000816040516020018082805190602001908083835b6020831061068f578051825260208201915060208101905060208303925061066c565b6001836020036101000a03801982511681845116808217855250505050505090500191505060405160208183030381529060405280519060200120905060606106d6610908565b6040518060600160405280848152602001838152602001838152509050806003600085815260200190815260200160002060008201518160000155602082015181600101908051906020019061072d9291906108bb565b50604082015181600201908051906020019061074a9291906108bb565b50905050600581908060018154018082558091505090600182039060005260206000209060030201600090919290919091506000820151816000015560208201518160010190805190602001906107a29291906108bb565b5060408201518160020190805190602001906107bf9291906108bb565b505050505050505b50565b6000809054906101000a900473ffffffffffffffffffffffffffffffffffffffff1673ffffffffffffffffffffffffffffffffffffffff163373ffffffffffffffffffffffffffffffffffffffff161461088c576040517f08c379a00000000000000000000000000000000000000000000000000000000081526004018080602001828103825260138152602001807f416363657373206e6f74204772616e746564210000000000000000000000000081525060200191505060405180910390fd5b565b60405180608001604052806000801916815260200160001515815260200160608152602001606081525090565b8280548282559060005260206000209081019282156108f7579160200282015b828111156108f65782518255916020019190600101906108db565b5b509050610904919061092c565b5090565b60405180606001604052806000801916815260200160608152602001606081525090565b61094e91905b8082111561094a576000816000905550600101610932565b5090565b9056fea165627a7a72305820ca480f8b5967bd941ac8c91619d43040737fcb98740276bfc4df77882a7ba40a0029",
  "source": "pragma solidity >=0.4.21 <0.6.0;\n\ncontract Access {\n    address public owner;\n    bytes32 noID = 0;\n\n    struct Modification {\n    string timeStamp;\n    string modType;\n    }\n\n    struct Member {\n        bytes32 id;\n        bool proxyUser;\n        uint256[] mods;\n        uint256[] mTime;\n    }\n\n    struct Researcher {\n        bytes32 id;\n        uint256[] mods;\n        uint256[] mTime;\n    }\n\n    mapping(bytes32=>Member) memMap;\n    mapping(bytes32=>Researcher) rMap;\n\n    Member[] memList;\n    Researcher[] rList;\n\n    constructor() public {\n        owner = msg.sender;\n    }\n\n    modifier isOwner() {\n        if (msg.sender == owner) _;\n    }\n\n    function getAccess() public view {\n        require(msg.sender == owner, \"Access not Granted!\");\n    }\n\n    function memberAccess(bytes32 _id) public view {\n        require(memMap[_id].id != noID, \"Member does not exist!\");\n    }\n\n        function researcherAccess(bytes32 _id) public view {\n        require(rMap[_id].id != noID, \"Researcher does not exist!\");\n    }\n\n    function addMember( string memory _name, bool _proxy) public isOwner {\n        bytes32 lunaID = keccak256(abi.encodePacked(_name, _proxy));\n        uint256[] memory mods;\n        Member memory newMember = Member(lunaID, _proxy, mods, mods);\n        memMap[lunaID] = newMember;\n        memList.push(newMember);\n    }\n\n  function addResearcher( string memory _name) public isOwner {\n        bytes32 lunaID = keccak256(abi.encodePacked(_name));\n        uint256[] memory mods;\n        Researcher memory newResearcher = Researcher(lunaID, mods, mods);\n        rMap[lunaID] = newResearcher;\n        rList.push(newResearcher);\n    }\n\n}\n",
  "sourcePath": "/Users/kenmiyachi/BlockLAB/offchain-api/contracts/Access.sol",
  "compiler": {
    "name": "solc",
    "version": "0.5.8+commit.23d335f2.Emscripten.clang"
  },
  "schemaVersion": "3.0.12",
  "updatedAt": "2019-09-18T16:48:10.320Z",
  "devdoc": {
    "methods": {}
  },
  "userdoc": {
    "methods": {}
  }
}