{
  "contractName": "Access",
  "abi": [
    {
      "constant": true,
      "inputs": [],
      "name": "owner",
      "outputs": [
        {
          "name": "",
          "type": "address"
        }
      ],
      "payable": false,
      "stateMutability": "view",
      "type": "function"
    },
    {
      "inputs": [],
      "payable": false,
      "stateMutability": "nonpayable",
      "type": "constructor"
    },
    {
      "anonymous": false,
      "inputs": [
        {
          "indexed": false,
          "name": "id",
          "type": "bytes32"
        }
      ],
      "name": "IDK",
      "type": "event"
    },
    {
      "anonymous": false,
      "inputs": [
        {
          "components": [
            {
              "name": "id",
              "type": "bytes32"
            },
            {
              "name": "name",
              "type": "string"
            },
            {
              "name": "proxyUser",
              "type": "bool"
            },
            {
              "name": "mods",
              "type": "uint256[]"
            },
            {
              "name": "mTime",
              "type": "uint256[]"
            }
          ],
          "indexed": false,
          "name": "mem",
          "type": "tuple"
        }
      ],
      "name": "HOPE",
      "type": "event"
    },
    {
      "constant": true,
      "inputs": [],
      "name": "getAccess",
      "outputs": [],
      "payable": false,
      "stateMutability": "view",
      "type": "function"
    },
    {
      "constant": true,
      "inputs": [
        {
          "name": "_name",
          "type": "string"
        }
      ],
      "name": "memberAccess",
      "outputs": [],
      "payable": false,
      "stateMutability": "view",
      "type": "function"
    },
    {
      "constant": true,
      "inputs": [
        {
          "name": "_name",
          "type": "string"
        }
      ],
      "name": "researcherAccess",
      "outputs": [],
      "payable": false,
      "stateMutability": "view",
      "type": "function"
    },
    {
      "constant": false,
      "inputs": [
        {
          "name": "_name",
          "type": "string"
        },
        {
          "name": "_proxy",
          "type": "bool"
        }
      ],
      "name": "addMember",
      "outputs": [],
      "payable": false,
      "stateMutability": "nonpayable",
      "type": "function"
    },
    {
      "constant": false,
      "inputs": [
        {
          "name": "_name",
          "type": "string"
        }
      ],
      "name": "addResearcher",
      "outputs": [],
      "payable": false,
      "stateMutability": "nonpayable",
      "type": "function"
    },
    {
      "constant": false,
      "inputs": [
        {
          "name": "_index",
          "type": "uint256"
        }
      ],
      "name": "help",
      "outputs": [],
      "payable": false,
      "stateMutability": "nonpayable",
      "type": "function"
    }
  ],
  "bytecode": "0x60806040526000801b6001553480156200001857600080fd5b50336000806101000a81548173ffffffffffffffffffffffffffffffffffffffff021916908373ffffffffffffffffffffffffffffffffffffffff1602179055506040518060400160405280600481526020017f504f535400000000000000000000000000000000000000000000000000000000815250600260008081526020019081526020016000209080519060200190620000b7929190620006c7565b506040518060400160405280600381526020017f50555400000000000000000000000000000000000000000000000000000000008152506002600060018152602001908152602001600020908051906020019062000117929190620006c7565b506040518060400160405280600381526020017f47455400000000000000000000000000000000000000000000000000000000008152506002600060028152602001908152602001600020908051906020019062000177929190620006c7565b506040518060400160405280600681526020017f44454c455445000000000000000000000000000000000000000000000000000081525060026000600381526020019081526020016000209080519060200190620001d7929190620006c7565b50620002206040518060400160405280600381526020017f6b656e000000000000000000000000000000000000000000000000000000000081525060006200026c60201b60201c565b620002666040518060400160405280600581526020017f44616e6e79000000000000000000000000000000000000000000000000000000815250620004bf60201b60201c565b620009d2565b6000809054906101000a900473ffffffffffffffffffffffffffffffffffffffff1673ffffffffffffffffffffffffffffffffffffffff163373ffffffffffffffffffffffffffffffffffffffff161415620004bb5760008282604051602001620002d992919062000919565b6040516020818303038152906040528051906020012090506060620002fd6200074e565b6040518060a00160405280848152602001868152602001851515815260200183815260200183815250905080600360008581526020019081526020016000206000820151816000015560208201518160010190805190602001906200036492919062000782565b5060408201518160020160006101000a81548160ff0219169083151502179055506060820151816003019080519060200190620003a392919062000809565b506080820151816004019080519060200190620003c292919062000809565b509050506001600586604051620003da919062000900565b908152602001604051809103902060006101000a81548160ff021916908315150217905550600781908060018154018082558091505090600182039060005260206000209060050201600090919290919091506000820151816000015560208201518160010190805190602001906200045592919062000782565b5060408201518160020160006101000a81548160ff02191690831515021790555060608201518160030190805190602001906200049492919062000809565b506080820151816004019080519060200190620004b392919062000809565b505050505050505b5050565b6000809054906101000a900473ffffffffffffffffffffffffffffffffffffffff1673ffffffffffffffffffffffffffffffffffffffff163373ffffffffffffffffffffffffffffffffffffffff161415620006c4576000816040516020016200052a919062000900565b60405160208183030381529060405280519060200120905060606200054e6200085b565b60405180608001604052808481526020018581526020018381526020018381525090508060046000858152602001908152602001600020600082015181600001556020820151816001019080519060200190620005ad92919062000782565b506040820151816002019080519060200190620005cc92919062000809565b506060820151816003019080519060200190620005eb92919062000809565b50905050600160068560405162000603919062000900565b908152602001604051809103902060006101000a81548160ff021916908315150217905550600881908060018154018082558091505090600182039060005260206000209060040201600090919290919091506000820151816000015560208201518160010190805190602001906200067e92919062000782565b5060408201518160020190805190602001906200069d92919062000809565b506060820151816003019080519060200190620006bc92919062000809565b505050505050505b50565b828054600181600116156101000203166002900490600052602060002090601f016020900481019282601f106200070a57805160ff19168380011785556200073b565b828001600101855582156200073b579182015b828111156200073a5782518255916020019190600101906200071d565b5b5090506200074a919062000886565b5090565b6040518060a00160405280600080191681526020016060815260200160001515815260200160608152602001606081525090565b828054600181600116156101000203166002900490600052602060002090601f016020900481019282601f10620007c557805160ff1916838001178555620007f6565b82800160010185558215620007f6579182015b82811115620007f5578251825591602001919060010190620007d8565b5b50905062000805919062000886565b5090565b82805482825590600052602060002090810192821562000848579160200282015b82811115620008475782518255916020019190600101906200082a565b5b50905062000857919062000886565b5090565b6040518060800160405280600080191681526020016060815260200160608152602001606081525090565b620008ab91905b80821115620008a75760008160009055506001016200088d565b5090565b90565b620008c3620008bd826200095b565b6200099d565b82525050565b6000620008d68262000945565b620008e2818562000950565b9350620008f481856020860162000967565b80840191505092915050565b60006200090e8284620008c9565b915081905092915050565b6000620009278285620008c9565b9150620009358284620008ae565b6001820191508190509392505050565b600081519050919050565b600081905092915050565b60008115159050919050565b60005b83811015620009875780820151818401526020810190506200096a565b8381111562000997576000848401525b50505050565b6000620009aa82620009b1565b9050919050565b6000620009be82620009c5565b9050919050565b60008160f81b9050919050565b6110bc80620009e26000396000f3fe608060405234801561001057600080fd5b506004361061007d5760003560e01c8063cb5dd8551161005b578063cb5dd855146100d8578063d0d07bb5146100f4578063e86438c214610110578063f7ca84311461012c5761007d565b8063801aaef3146100825780638da5cb5b1461009e57806392c68389146100bc575b600080fd5b61009c60048036036100979190810190610975565b610136565b005b6100a66101a4565b6040516100b39190610d6a565b60405180910390f35b6100d660048036036100d191908101906109b6565b6101c9565b005b6100f260048036036100ed9190810190610a0a565b610409565b005b61010e60048036036101099190810190610975565b6104b2565b005b61012a60048036036101259190810190610975565b610520565b005b610134610715565b005b6005816040516101469190610d2b565b908152602001604051809103902060009054906101000a900460ff166101a1576040517f08c379a000000000000000000000000000000000000000000000000000000000815260040161019890610da0565b60405180910390fd5b50565b6000809054906101000a900473ffffffffffffffffffffffffffffffffffffffff1681565b6000809054906101000a900473ffffffffffffffffffffffffffffffffffffffff1673ffffffffffffffffffffffffffffffffffffffff163373ffffffffffffffffffffffffffffffffffffffff1614156104055760008282604051602001610233929190610d42565b60405160208183030381529060405280519060200120905060606102556107a6565b6040518060a00160405280848152602001868152602001851515815260200183815260200183815250905080600360008581526020019081526020016000206000820151816000015560208201518160010190805190602001906102ba9291906107da565b5060408201518160020160006101000a81548160ff02191690831515021790555060608201518160030190805190602001906102f792919061085a565b50608082015181600401908051906020019061031492919061085a565b50905050600160058660405161032a9190610d2b565b908152602001604051809103902060006101000a81548160ff021916908315150217905550600781908060018154018082558091505090600182039060005260206000209060050201600090919290919091506000820151816000015560208201518160010190805190602001906103a39291906107da565b5060408201518160020160006101000a81548160ff02191690831515021790555060608201518160030190805190602001906103e092919061085a565b5060808201518160040190805190602001906103fd92919061085a565b505050505050505b5050565b7ff97925f943254b10f6ae3c29b6823f87c74295eb89b2f3d9d603b55470a5b5b16007828154811061043757fe5b9060005260206000209060050201600001546040516104569190610d85565b60405180910390a17f15bf8becc2c08a5a410f3bba573ed78922f437a1786dd3aa0429fa0286237c366007828154811061048c57fe5b90600052602060002090600502016040516104a79190610e00565b60405180910390a150565b6006816040516104c29190610d2b565b908152602001604051809103902060009054906101000a900460ff1661051d576040517f08c379a000000000000000000000000000000000000000000000000000000000815260040161051490610dc0565b60405180910390fd5b50565b6000809054906101000a900473ffffffffffffffffffffffffffffffffffffffff1673ffffffffffffffffffffffffffffffffffffffff163373ffffffffffffffffffffffffffffffffffffffff161415610712576000816040516020016105889190610d2b565b60405160208183030381529060405280519060200120905060606105aa6108a7565b604051806080016040528084815260200185815260200183815260200183815250905080600460008581526020019081526020016000206000820151816000015560208201518160010190805190602001906106079291906107da565b50604082015181600201908051906020019061062492919061085a565b50606082015181600301908051906020019061064192919061085a565b5090505060016006856040516106579190610d2b565b908152602001604051809103902060006101000a81548160ff021916908315150217905550600881908060018154018082558091505090600182039060005260206000209060040201600090919290919091506000820151816000015560208201518160010190805190602001906106d09291906107da565b5060408201518160020190805190602001906106ed92919061085a565b50606082015181600301908051906020019061070a92919061085a565b505050505050505b50565b6000809054906101000a900473ffffffffffffffffffffffffffffffffffffffff1673ffffffffffffffffffffffffffffffffffffffff163373ffffffffffffffffffffffffffffffffffffffff16146107a4576040517f08c379a000000000000000000000000000000000000000000000000000000000815260040161079b90610de0565b60405180910390fd5b565b6040518060a00160405280600080191681526020016060815260200160001515815260200160608152602001606081525090565b828054600181600116156101000203166002900490600052602060002090601f016020900481019282601f1061081b57805160ff1916838001178555610849565b82800160010185558215610849579182015b8281111561084857825182559160200191906001019061082d565b5b50905061085691906108d2565b5090565b828054828255906000526020600020908101928215610896579160200282015b8281111561089557825182559160200191906001019061087a565b5b5090506108a391906108d2565b5090565b6040518060800160405280600080191681526020016060815260200160608152602001606081525090565b6108f491905b808211156108f05760008160009055506001016108d8565b5090565b90565b60008135905061090681611054565b92915050565b600082601f83011261091d57600080fd5b813561093061092b82610e4f565b610e22565b9150808252602083016020830185838301111561094c57600080fd5b610957838284610f73565b50505092915050565b60008135905061096f8161106b565b92915050565b60006020828403121561098757600080fd5b600082013567ffffffffffffffff8111156109a157600080fd5b6109ad8482850161090c565b91505092915050565b600080604083850312156109c957600080fd5b600083013567ffffffffffffffff8111156109e357600080fd5b6109ef8582860161090c565b9250506020610a00858286016108f7565b9150509250929050565b600060208284031215610a1c57600080fd5b6000610a2a84828501610960565b91505092915050565b6000610a3f8383610d1c565b60208301905092915050565b610a5481610f21565b82525050565b6000610a6582610e9f565b610a6f8185610ec2565b9350610a7a83610e7b565b8060005b83811015610ab257610a8f82611027565b610a998882610a33565b9750610aa483610eb5565b925050600181019050610a7e565b5085935050505092915050565b610ac881610f33565b82525050565b610adf610ada82610f33565b611003565b82525050565b610aee81610f3f565b82525050565b610afd81610f3f565b82525050565b6000610b0e82610eaa565b610b188185610ef5565b9350610b28818560208601610f82565b80840191505092915050565b600081546001811660008114610b515760018114610b7757610bbb565b607f6002830416610b628187610ed3565b955060ff198316865260208601935050610bbb565b60028204610b858187610ed3565b9550610b9085610e8d565b60005b82811015610bb257815481890152600182019150602081019050610b93565b80880195505050505b505092915050565b6000610bd0601683610ee4565b91507f4d656d62657220646f6573206e6f7420657869737421000000000000000000006000830152602082019050919050565b6000610c10601a83610ee4565b91507f5265736561726368657220646f6573206e6f74206578697374210000000000006000830152602082019050919050565b6000610c50601383610ee4565b91507f416363657373206e6f74204772616e74656421000000000000000000000000006000830152602082019050919050565b600060a083016000808401549050610c9a81610fcf565b610ca76000870182610ae5565b50600184018583036020870152610cbe8382610b34565b92505060028401549050610cd181610fb5565b610cde6040870182610abf565b50600384018583036060870152610cf58382610a5a565b925050600484018583036080870152610d0e8382610a5a565b925050819250505092915050565b610d2581610f69565b82525050565b6000610d378284610b03565b915081905092915050565b6000610d4e8285610b03565b9150610d5a8284610ace565b6001820191508190509392505050565b6000602082019050610d7f6000830184610a4b565b92915050565b6000602082019050610d9a6000830184610af4565b92915050565b60006020820190508181036000830152610db981610bc3565b9050919050565b60006020820190508181036000830152610dd981610c03565b9050919050565b60006020820190508181036000830152610df981610c43565b9050919050565b60006020820190508181036000830152610e1a8184610c83565b905092915050565b6000604051905081810181811067ffffffffffffffff82111715610e4557600080fd5b8060405250919050565b600067ffffffffffffffff821115610e6657600080fd5b601f19601f8301169050602081019050919050565b60008160005260206000209050919050565b60008160005260206000209050919050565b600081549050919050565b600081519050919050565b6000600182019050919050565b600082825260208201905092915050565b600082825260208201905092915050565b600082825260208201905092915050565b600081905092915050565b600060ff82169050919050565b6000819050919050565b6000819050919050565b6000610f2c82610f49565b9050919050565b60008115159050919050565b6000819050919050565b600073ffffffffffffffffffffffffffffffffffffffff82169050919050565b6000819050919050565b82818337600083830152505050565b60005b83811015610fa0578082015181840152602081019050610f85565b83811115610faf576000848401525b50505050565b6000610fc8610fc383611047565b610f00565b9050919050565b6000610fe2610fdd83611047565b610f0d565b9050919050565b6000610ffc610ff783611047565b610f17565b9050919050565b600061100e82611015565b9050919050565b60006110208261103a565b9050919050565b60006110338254610fe9565b9050919050565b60008160f81b9050919050565b60008160001c9050919050565b61105d81610f33565b811461106857600080fd5b50565b61107481610f69565b811461107f57600080fd5b5056fea265627a7a723058206aa2c9abebe497ef11c42766bee258516832b6db4623b7f9f127ca68f9f23e2c6c6578706572696d656e74616cf50037",
  "source": "pragma solidity >=0.4.21 <0.6.0;\npragma experimental ABIEncoderV2;\n\ncontract Access {\n    address public owner;\n    bytes32 noID = 0;\n    event IDK(bytes32 id);\n    event HOPE(Member mem);\n\n    struct Modification {\n    string timeStamp;\n    string modType;\n    }\n\n    struct Member {\n        bytes32 id;\n        string name;\n        bool proxyUser;\n        uint256[] mods;\n        uint256[] mTime;\n    }\n\n    struct Researcher {\n        bytes32 id;\n        string name;\n        uint256[] mods;\n        uint256[] mTime;\n    }\n\n\n    mapping(uint256=>string) modMap;\n    mapping(bytes32=>Member) memMap;\n    mapping(bytes32=>Researcher) rMap;\n    \n    \n    mapping(string=>bool) memName;\n    mapping(string=>bool) rName;\n    Member[] memList;\n    Researcher[] rList;\n\n    constructor() public {\n        owner = msg.sender;\n        modMap[0] = \"POST\";\n        modMap[1] = \"PUT\";\n        modMap[2] = \"GET\";\n        modMap[3] = \"DELETE\";\n        addMember(\"ken\", false);\n        addResearcher(\"Danny\");\n    }\n\n    modifier isOwner() {\n        if (msg.sender == owner) _;\n    }\n\n    function getAccess() public view {\n        require(msg.sender == owner, \"Access not Granted!\");\n    }\n\n    // function memberAccess(bytes32 _id) public view {\n    //     require(memMap[_id].id != noID, \"Member does not exist!\");\n    // }\n\n    //     function researcherAccess(bytes32 _id) public view {\n    //     require(rMap[_id].id != noID, \"Researcher does not exist!\");\n    // }\n\n\n    function memberAccess(string memory _name) public view {\n        require(memName[_name], \"Member does not exist!\");\n    }\n\n    function researcherAccess(string memory _name) public view {\n        require(rName[_name], \"Researcher does not exist!\");\n    }\n\n    function addMember( string memory _name, bool _proxy) public isOwner {\n        bytes32 lunaID = keccak256(abi.encodePacked(_name, _proxy));\n        uint256[] memory mods;\n        Member memory newMember = Member(lunaID, _name, _proxy, mods, mods);\n        memMap[lunaID] = newMember;\n        memName[_name] = true;\n        memList.push(newMember);\n    }\n\n  function addResearcher( string memory _name) public isOwner {\n        bytes32 lunaID = keccak256(abi.encodePacked(_name));\n        uint256[] memory mods;\n        Researcher memory newResearcher = Researcher(lunaID, _name, mods, mods);\n        rMap[lunaID] = newResearcher;\n        rName[_name] = true;\n        rList.push(newResearcher);\n    }\n\n\n    function help(uint256 _index) public {\n        emit IDK(memList[_index].id);\n        emit HOPE(memList[_index]);\n    }\n\n    \n\n}\n",
  "sourcePath": "/Users/kenmiyachi/BlockLAB/offchain-api/contracts/Access.sol",
  "compiler": {
    "name": "solc",
    "version": "0.5.8+commit.23d335f2.Emscripten.clang"
  },
  "schemaVersion": "3.0.12",
  "updatedAt": "2019-09-20T00:45:18.002Z",
  "devdoc": {
    "methods": {}
  },
  "userdoc": {
    "methods": {}
  }
}