{
  "contractName": "Member",
  "abi": [
    {
      "inputs": [
        {
          "internalType": "bytes32",
          "name": "_id",
          "type": "bytes32"
        },
        {
          "internalType": "bool",
          "name": "_proxy",
          "type": "bool"
        }
      ],
      "payable": false,
      "stateMutability": "nonpayable",
      "type": "constructor"
    },
    {
      "constant": false,
      "inputs": [
        {
          "internalType": "address",
          "name": "_dataFile",
          "type": "address"
        },
        {
          "internalType": "string",
          "name": "_dataElement",
          "type": "string"
        },
        {
          "internalType": "string",
          "name": "_timeStamp",
          "type": "string"
        }
      ],
      "name": "addData",
      "outputs": [],
      "payable": false,
      "stateMutability": "nonpayable",
      "type": "function"
    },
    {
      "constant": false,
      "inputs": [
        {
          "internalType": "string",
          "name": "_dataElement",
          "type": "string"
        },
        {
          "internalType": "address",
          "name": "_newDataAddress",
          "type": "address"
        },
        {
          "internalType": "string",
          "name": "_timeStamp",
          "type": "string"
        }
      ],
      "name": "editData",
      "outputs": [],
      "payable": false,
      "stateMutability": "nonpayable",
      "type": "function"
    },
    {
      "constant": false,
      "inputs": [
        {
          "internalType": "string",
          "name": "_dataElement",
          "type": "string"
        },
        {
          "internalType": "string",
          "name": "_timeStamp",
          "type": "string"
        }
      ],
      "name": "deleteData",
      "outputs": [],
      "payable": false,
      "stateMutability": "nonpayable",
      "type": "function"
    }
  ],
  "bytecode": "0x608060405234801561001057600080fd5b50604051610a9b380380610a9b8339818101604052604081101561003357600080fd5b8101908080519060200190929190805190602001909291905050508160008190555080600160006101000a81548160ff0219169083151502179055505050610a1b806100806000396000f3fe608060405234801561001057600080fd5b50600436106100415760003560e01c80637731d02e14610046578063a69ea63c146101b8578063d8a874ff1461030a575b600080fd5b6101b66004803603606081101561005c57600080fd5b81019080803573ffffffffffffffffffffffffffffffffffffffff1690602001909291908035906020019064010000000081111561009957600080fd5b8201836020820111156100ab57600080fd5b803590602001918460018302840111640100000000831117156100cd57600080fd5b91908080601f016020809104026020016040519081016040528093929190818152602001838380828437600081840152601f19601f8201169050808301925050505050505091929192908035906020019064010000000081111561013057600080fd5b82018360208201111561014257600080fd5b8035906020019184600183028401116401000000008311171561016457600080fd5b91908080601f016020809104026020016040519081016040528093929190818152602001838380828437600081840152601f19601f82011690508083019250505050505050919291929050505061047c565b005b610308600480360360408110156101ce57600080fd5b81019080803590602001906401000000008111156101eb57600080fd5b8201836020820111156101fd57600080fd5b8035906020019184600183028401116401000000008311171561021f57600080fd5b91908080601f016020809104026020016040519081016040528093929190818152602001838380828437600081840152601f19601f8201169050808301925050505050505091929192908035906020019064010000000081111561028257600080fd5b82018360208201111561029457600080fd5b803590602001918460018302840111640100000000831117156102b657600080fd5b91908080601f016020809104026020016040519081016040528093929190818152602001838380828437600081840152601f19601f82011690508083019250505050505050919291929050505061061c565b005b61047a6004803603606081101561032057600080fd5b810190808035906020019064010000000081111561033d57600080fd5b82018360208201111561034f57600080fd5b8035906020019184600183028401116401000000008311171561037157600080fd5b91908080601f016020809104026020016040519081016040528093929190818152602001838380828437600081840152601f19601f820116905080830192505050505050509192919290803573ffffffffffffffffffffffffffffffffffffffff169060200190929190803590602001906401000000008111156103f457600080fd5b82018360208201111561040657600080fd5b8035906020019184600183028401116401000000008311171561042857600080fd5b91908080601f016020809104026020016040519081016040528093929190818152602001838380828437600081840152601f19601f820116905080830192505050505050509192919290505050610760565b005b60028290806001815401808255809150509060018203906000526020600020016000909192909190915090805190602001906104b99291906108c1565b5050826003836040518082805190602001908083835b602083106104f257805182526020820191506020810190506020830392506104cf565b6001836020036101000a038019825116818451168082178552505050505050905001915050908152602001604051809103902060006101000a81548173ffffffffffffffffffffffffffffffffffffffff021916908373ffffffffffffffffffffffffffffffffffffffff160217905550600460405180604001604052808381526020016040518060400160405280600381526020017f61646400000000000000000000000000000000000000000000000000000000008152508152509080600181540180825580915050906001820390600052602060002090600202016000909192909190915060008201518160000190805190602001906105f6929190610941565b506020820151816001019080519060200190610613929190610941565b50505050505050565b6003826040518082805190602001908083835b60208310610652578051825260208201915060208101905060208303925061062f565b6001836020036101000a038019825116818451168082178552505050505050905001915050908152602001604051809103902060006101000a81549073ffffffffffffffffffffffffffffffffffffffff0219169055600460405180604001604052808381526020016040518060400160405280600681526020017f64656c657465000000000000000000000000000000000000000000000000000081525081525090806001815401808255809150509060018203906000526020600020906002020160009091929091909150600082015181600001908051906020019061073b929190610941565b506020820151816001019080519060200190610758929190610941565b505050505050565b816003846040518082805190602001908083835b602083106107975780518252602082019150602081019050602083039250610774565b6001836020036101000a038019825116818451168082178552505050505050905001915050908152602001604051809103902060006101000a81548173ffffffffffffffffffffffffffffffffffffffff021916908373ffffffffffffffffffffffffffffffffffffffff160217905550600460405180604001604052808381526020016040518060400160405280600481526020017f656469740000000000000000000000000000000000000000000000000000000081525081525090806001815401808255809150509060018203906000526020600020906002020160009091929091909150600082015181600001908051906020019061089b929190610941565b5060208201518160010190805190602001906108b8929190610941565b50505050505050565b828054600181600116156101000203166002900490600052602060002090601f016020900481019282601f1061090257805160ff1916838001178555610930565b82800160010185558215610930579182015b8281111561092f578251825591602001919060010190610914565b5b50905061093d91906109c1565b5090565b828054600181600116156101000203166002900490600052602060002090601f016020900481019282601f1061098257805160ff19168380011785556109b0565b828001600101855582156109b0579182015b828111156109af578251825591602001919060010190610994565b5b5090506109bd91906109c1565b5090565b6109e391905b808211156109df5760008160009055506001016109c7565b5090565b9056fea265627a7a7231582057ed1e2ac434e4adc362b7b9a3b64e24b467d7f5012befc2d3e8d70f3c1fe10964736f6c634300050c0032",
  "source": "pragma solidity >=0.4.21 <0.6.0;\n\nimport \"./SafeMath.sol\";\n\ncontract Member {\n\n    bytes32 lunaID;\n    bool proxyUser;\n\n    string[] dataElements;\n    mapping(string=>address) dataMap;\n\n    struct Modification {\n        string timeStamp;\n        string modType;\n    }\n\n    Modification[] modifications;\n\n\n    constructor(bytes32 _id, bool _proxy) public {\n        lunaID = _id;\n        proxyUser = _proxy;\n    }\n\n    function addData(address _dataFile, string memory _dataElement, string memory _timeStamp) public {\n        dataElements.push(_dataElement);\n        dataMap[_dataElement] = _dataFile;\n        modifications.push(Modification(_timeStamp, \"add\"));\n    }\n\n    function editData(string memory _dataElement, address _newDataAddress, string memory _timeStamp) public {\n        dataMap[_dataElement] = _newDataAddress;\n        modifications.push(Modification(_timeStamp, \"edit\"));\n    }\n\n    function deleteData(string memory _dataElement, string memory _timeStamp) public {\n        delete dataMap[_dataElement];\n        modifications.push(Modification(_timeStamp, \"delete\"));\n    }\n}",
  "sourcePath": "/Users/samsonqian/Documents/GitHub/offchain-api/contracts/Member.sol",
  "compiler": {
    "name": "solc",
    "version": "0.5.12+commit.7709ece9.Emscripten.clang"
  },
  "schemaVersion": "3.0.20",
  "updatedAt": "2020-10-09T03:28:48.640Z",
  "networkType": "ethereum",
  "devdoc": {
    "methods": {}
  },
  "userdoc": {
    "methods": {}
  }
}