{
  "contractName": "Oracle",
  "abi": [
    {
      "constant": true,
      "inputs": [],
      "name": "last_completed_migration",
      "outputs": [
        {
          "name": "",
          "type": "uint256"
        }
      ],
      "payable": false,
      "stateMutability": "view",
      "type": "function"
    },
    {
      "constant": true,
      "inputs": [],
      "name": "ETHUSD",
      "outputs": [
        {
          "name": "",
          "type": "string"
        }
      ],
      "payable": false,
      "stateMutability": "view",
      "type": "function"
    },
    {
      "constant": true,
      "inputs": [],
      "name": "owner",
      "outputs": [
        {
          "name": "",
          "type": "address"
        }
      ],
      "payable": false,
      "stateMutability": "view",
      "type": "function"
    },
    {
      "constant": true,
      "inputs": [],
      "name": "returnHash",
      "outputs": [
        {
          "name": "",
          "type": "bytes32"
        }
      ],
      "payable": false,
      "stateMutability": "view",
      "type": "function"
    },
    {
      "constant": true,
      "inputs": [],
      "name": "balance",
      "outputs": [
        {
          "name": "",
          "type": "uint256"
        }
      ],
      "payable": false,
      "stateMutability": "view",
      "type": "function"
    },
    {
      "inputs": [],
      "payable": false,
      "stateMutability": "nonpayable",
      "type": "constructor"
    },
    {
      "payable": true,
      "stateMutability": "payable",
      "type": "fallback"
    },
    {
      "anonymous": false,
      "inputs": [
        {
          "indexed": false,
          "name": "nextStep",
          "type": "string"
        }
      ],
      "name": "LogConstructorInitiated",
      "type": "event"
    },
    {
      "anonymous": false,
      "inputs": [
        {
          "indexed": false,
          "name": "price",
          "type": "string"
        }
      ],
      "name": "LogPriceUpdated",
      "type": "event"
    },
    {
      "anonymous": false,
      "inputs": [
        {
          "indexed": false,
          "name": "description",
          "type": "string"
        }
      ],
      "name": "LogNewProvableQuery",
      "type": "event"
    },
    {
      "anonymous": false,
      "inputs": [
        {
          "indexed": false,
          "name": "amount",
          "type": "uint256"
        },
        {
          "indexed": false,
          "name": "moneyNeeded",
          "type": "uint256"
        }
      ],
      "name": "Balance",
      "type": "event"
    },
    {
      "constant": false,
      "inputs": [
        {
          "name": "myid",
          "type": "bytes32"
        },
        {
          "name": "result",
          "type": "string"
        }
      ],
      "name": "__callback",
      "outputs": [],
      "payable": false,
      "stateMutability": "nonpayable",
      "type": "function"
    },
    {
      "constant": false,
      "inputs": [
        {
          "name": "_myid",
          "type": "bytes32"
        },
        {
          "name": "_result",
          "type": "string"
        },
        {
          "name": "_proof",
          "type": "bytes"
        }
      ],
      "name": "__callback",
      "outputs": [],
      "payable": false,
      "stateMutability": "nonpayable",
      "type": "function"
    },
    {
      "constant": false,
      "inputs": [],
      "name": "updatePrice",
      "outputs": [],
      "payable": true,
      "stateMutability": "payable",
      "type": "function"
    },
    {
      "constant": false,
      "inputs": [],
      "name": "getNews",
      "outputs": [],
      "payable": true,
      "stateMutability": "payable",
      "type": "function"
    },
    {
      "constant": true,
      "inputs": [],
      "name": "getHash",
      "outputs": [
        {
          "name": "dataHash",
          "type": "bytes32"
        }
      ],
      "payable": false,
      "stateMutability": "view",
      "type": "function"
    }
  ],
  "bytecode": "0x608060405234801561001057600080fd5b5033600560006101000a81548173ffffffffffffffffffffffffffffffffffffffff021916908373ffffffffffffffffffffffffffffffffffffffff1602179055507f11a3fca63f87bd67d7f9f72b744acc8be2193705e7a734ac3a773d35d259e87b60405180806020018281038252604b815260200180611eb5604b913960600191505060405180910390a1611e09806100ac6000396000f3fe6080604052600436106100915760003560e01c806373db08441161005957806373db08441461030d5780638da5cb5b1461039d5780639d5b2592146103f4578063b69ef8a81461041f578063d13319c41461044a57610091565b8063111d81711461009357806327dc297e1461009d57806338bbfa501461016f578063445df0ac146102d8578063673a7e2814610303575b005b61009b610475565b005b3480156100a957600080fd5b5061016d600480360360408110156100c057600080fd5b8101908080359060200190929190803590602001906401000000008111156100e757600080fd5b8201836020820111156100f957600080fd5b8035906020019184600183028401116401000000008311171561011b57600080fd5b91908080601f016020809104026020016040519081016040528093929190818152602001838380828437600081840152601f19601f82011690508083019250505050505050919291929050505061065a565b005b34801561017b57600080fd5b506102d66004803603606081101561019257600080fd5b8101908080359060200190929190803590602001906401000000008111156101b957600080fd5b8201836020820111156101cb57600080fd5b803590602001918460018302840111640100000000831117156101ed57600080fd5b91908080601f016020809104026020016040519081016040528093929190818152602001838380828437600081840152601f19601f8201169050808301925050505050505091929192908035906020019064010000000081111561025057600080fd5b82018360208201111561026257600080fd5b8035906020019184600183028401116401000000008311171561028457600080fd5b91908080601f016020809104026020016040519081016040528093929190818152602001838380828437600081840152601f19601f8201169050808301925050505050505091929192905050506107c8565b005b3480156102e457600080fd5b506102ed6107eb565b6040518082815260200191505060405180910390f35b61030b6107f1565b005b34801561031957600080fd5b506103226109d6565b6040518080602001828103825283818151815260200191508051906020019080838360005b83811015610362578082015181840152602081019050610347565b50505050905090810190601f16801561038f5780820380516001836020036101000a031916815260200191505b509250505060405180910390f35b3480156103a957600080fd5b506103b2610a74565b604051808273ffffffffffffffffffffffffffffffffffffffff1673ffffffffffffffffffffffffffffffffffffffff16815260200191505060405180910390f35b34801561040057600080fd5b50610409610a9a565b6040518082815260200191505060405180910390f35b34801561042b57600080fd5b50610434610aa0565b6040518082815260200191505060405180910390f35b34801561045657600080fd5b5061045f610aa6565b6040518082815260200191505060405180910390f35b7f740f7e210cf19d27b8ab2cec1ebb61687bdc5f38f8bd56f0c8e5d22ed71854db3073ffffffffffffffffffffffffffffffffffffffff16316104ec6040518060400160405280600381526020017f55524c0000000000000000000000000000000000000000000000000000000000815250610ab0565b604051808381526020018281526020019250505060405180910390a13073ffffffffffffffffffffffffffffffffffffffff163161055e6040518060400160405280600381526020017f55524c0000000000000000000000000000000000000000000000000000000000815250610ab0565b11156105b4577fc4dc360d0a9c0677a3379ae0a3d81e887f761e65fdf3d7e00859d1bcd3c4738960405180806020018281038252604b815260200180611d0c604b913960600191505060405180910390a1610658565b7fc4dc360d0a9c0677a3379ae0a3d81e887f761e65fdf3d7e00859d1bcd3c47389604051808060200182810382526035815260200180611cd76035913960400191505060405180910390a16106566040518060400160405280600381526020017f55524c0000000000000000000000000000000000000000000000000000000000815250604051806080016040528060478152602001611d9760479139610e41565b505b565b610662611387565b73ffffffffffffffffffffffffffffffffffffffff163373ffffffffffffffffffffffffffffffffffffffff161461069957600080fd5b80600990805190602001906106af929190611c31565b50806040516020018082805190602001908083835b602083106106e757805182526020820191506020810190506020830392506106c4565b6001836020036101000a038019825116818451168082178552505050505050905001915050604051602081830303815290604052805190602001206008819055507f71f1a5645e51a2da828ffcf79cc17da88eb25e1bca8b9dced23210847a4769c1816040518080602001828103825283818151815260200191508051906020019080838360005b8381101561078a57808201518184015260208101905061076f565b50505050905090810190601f1680156107b75780820380516001836020036101000a031916815260200191505b509250505060405180910390a15050565b6000801b600360008060001b815260200190815260200160002081905550505050565b60065481565b7f740f7e210cf19d27b8ab2cec1ebb61687bdc5f38f8bd56f0c8e5d22ed71854db3073ffffffffffffffffffffffffffffffffffffffff16316108686040518060400160405280600381526020017f55524c0000000000000000000000000000000000000000000000000000000000815250610ab0565b604051808381526020018281526020019250505060405180910390a13073ffffffffffffffffffffffffffffffffffffffff16316108da6040518060400160405280600381526020017f55524c0000000000000000000000000000000000000000000000000000000000815250610ab0565b1115610930577fc4dc360d0a9c0677a3379ae0a3d81e887f761e65fdf3d7e00859d1bcd3c4738960405180806020018281038252604b815260200180611d0c604b913960600191505060405180910390a16109d4565b7fc4dc360d0a9c0677a3379ae0a3d81e887f761e65fdf3d7e00859d1bcd3c47389604051808060200182810382526035815260200180611cd76035913960400191505060405180910390a16109d26040518060400160405280600381526020017f55524c0000000000000000000000000000000000000000000000000000000000815250604051806060016040528060408152602001611d5760409139610e41565b505b565b60098054600181600116156101000203166002900480601f016020809104026020016040519081016040528092919081815260200182805460018160011615610100020316600290048015610a6c5780601f10610a4157610100808354040283529160200191610a6c565b820191906000526020600020905b815481529060010190602001808311610a4f57829003601f168201915b505050505081565b600560009054906101000a900473ffffffffffffffffffffffffffffffffffffffff1681565b60085481565b60075481565b6000600854905090565b60008073ffffffffffffffffffffffffffffffffffffffff16600160009054906101000a900473ffffffffffffffffffffffffffffffffffffffff1673ffffffffffffffffffffffffffffffffffffffff161480610b3857506000610b36600160009054906101000a900473ffffffffffffffffffffffffffffffffffffffff166116a4565b145b15610b4957610b4760006116af565b505b600160009054906101000a900473ffffffffffffffffffffffffffffffffffffffff1673ffffffffffffffffffffffffffffffffffffffff166338cc48316040518163ffffffff1660e01b8152600401602060405180830381600087803b158015610bb357600080fd5b505af1158015610bc7573d6000803e3d6000fd5b505050506040513d6020811015610bdd57600080fd5b810190808051906020019092919050505073ffffffffffffffffffffffffffffffffffffffff166000809054906101000a900473ffffffffffffffffffffffffffffffffffffffff1673ffffffffffffffffffffffffffffffffffffffff1614610d2657600160009054906101000a900473ffffffffffffffffffffffffffffffffffffffff1673ffffffffffffffffffffffffffffffffffffffff166338cc48316040518163ffffffff1660e01b8152600401602060405180830381600087803b158015610cab57600080fd5b505af1158015610cbf573d6000803e3d6000fd5b505050506040513d6020811015610cd557600080fd5b81019080805190602001909291905050506000806101000a81548173ffffffffffffffffffffffffffffffffffffffff021916908373ffffffffffffffffffffffffffffffffffffffff1602179055505b6000809054906101000a900473ffffffffffffffffffffffffffffffffffffffff1673ffffffffffffffffffffffffffffffffffffffff1663524f3889836040518263ffffffff1660e01b81526004018080602001828103825283818151815260200191508051906020019080838360005b83811015610db3578082015181840152602081019050610d98565b50505050905090810190601f168015610de05780820380516001836020036101000a031916815260200191505b5092505050602060405180830381600087803b158015610dff57600080fd5b505af1158015610e13573d6000803e3d6000fd5b505050506040513d6020811015610e2957600080fd5b81019080805190602001909291905050509050919050565b60008073ffffffffffffffffffffffffffffffffffffffff16600160009054906101000a900473ffffffffffffffffffffffffffffffffffffffff1673ffffffffffffffffffffffffffffffffffffffff161480610ec957506000610ec7600160009054906101000a900473ffffffffffffffffffffffffffffffffffffffff166116a4565b145b15610eda57610ed860006116af565b505b600160009054906101000a900473ffffffffffffffffffffffffffffffffffffffff1673ffffffffffffffffffffffffffffffffffffffff166338cc48316040518163ffffffff1660e01b8152600401602060405180830381600087803b158015610f4457600080fd5b505af1158015610f58573d6000803e3d6000fd5b505050506040513d6020811015610f6e57600080fd5b810190808051906020019092919050505073ffffffffffffffffffffffffffffffffffffffff166000809054906101000a900473ffffffffffffffffffffffffffffffffffffffff1673ffffffffffffffffffffffffffffffffffffffff16146110b757600160009054906101000a900473ffffffffffffffffffffffffffffffffffffffff1673ffffffffffffffffffffffffffffffffffffffff166338cc48316040518163ffffffff1660e01b8152600401602060405180830381600087803b15801561103c57600080fd5b505af1158015611050573d6000803e3d6000fd5b505050506040513d602081101561106657600080fd5b81019080805190602001909291905050506000806101000a81548173ffffffffffffffffffffffffffffffffffffffff021916908373ffffffffffffffffffffffffffffffffffffffff1602179055505b60008060009054906101000a900473ffffffffffffffffffffffffffffffffffffffff1673ffffffffffffffffffffffffffffffffffffffff1663524f3889856040518263ffffffff1660e01b81526004018080602001828103825283818151815260200191508051906020019080838360005b8381101561114657808201518184015260208101905061112b565b50505050905090810190601f1680156111735780820380516001836020036101000a031916815260200191505b5092505050602060405180830381600087803b15801561119257600080fd5b505af11580156111a6573d6000803e3d6000fd5b505050506040513d60208110156111bc57600080fd5b8101908080519060200190929190505050905062030d403a02670de0b6b3a7640000018111156111f2576000801b915050611381565b6000809054906101000a900473ffffffffffffffffffffffffffffffffffffffff1673ffffffffffffffffffffffffffffffffffffffff1663adf59f9982600087876040518563ffffffff1660e01b8152600401808481526020018060200180602001838103835285818151815260200191508051906020019080838360005b8381101561128d578082015181840152602081019050611272565b50505050905090810190601f1680156112ba5780820380516001836020036101000a031916815260200191505b50838103825284818151815260200191508051906020019080838360005b838110156112f35780820151818401526020810190506112d8565b50505050905090810190601f1680156113205780820380516001836020036101000a031916815260200191505b50955050505050506020604051808303818588803b15801561134157600080fd5b505af1158015611355573d6000803e3d6000fd5b50505050506040513d602081101561136c57600080fd5b81019080805190602001909291905050509150505b92915050565b60008073ffffffffffffffffffffffffffffffffffffffff16600160009054906101000a900473ffffffffffffffffffffffffffffffffffffffff1673ffffffffffffffffffffffffffffffffffffffff16148061140f5750600061140d600160009054906101000a900473ffffffffffffffffffffffffffffffffffffffff166116a4565b145b156114205761141e60006116af565b505b600160009054906101000a900473ffffffffffffffffffffffffffffffffffffffff1673ffffffffffffffffffffffffffffffffffffffff166338cc48316040518163ffffffff1660e01b8152600401602060405180830381600087803b15801561148a57600080fd5b505af115801561149e573d6000803e3d6000fd5b505050506040513d60208110156114b457600080fd5b810190808051906020019092919050505073ffffffffffffffffffffffffffffffffffffffff166000809054906101000a900473ffffffffffffffffffffffffffffffffffffffff1673ffffffffffffffffffffffffffffffffffffffff16146115fd57600160009054906101000a900473ffffffffffffffffffffffffffffffffffffffff1673ffffffffffffffffffffffffffffffffffffffff166338cc48316040518163ffffffff1660e01b8152600401602060405180830381600087803b15801561158257600080fd5b505af1158015611596573d6000803e3d6000fd5b505050506040513d60208110156115ac57600080fd5b81019080805190602001909291905050506000806101000a81548173ffffffffffffffffffffffffffffffffffffffff021916908373ffffffffffffffffffffffffffffffffffffffff1602179055505b6000809054906101000a900473ffffffffffffffffffffffffffffffffffffffff1673ffffffffffffffffffffffffffffffffffffffff1663c281d19e6040518163ffffffff1660e01b815260040160206040518083038186803b15801561166457600080fd5b505afa158015611678573d6000803e3d6000fd5b505050506040513d602081101561168e57600080fd5b8101908080519060200190929190505050905090565b6000813b9050919050565b60006116b96116c0565b9050919050565b6000806116e0731d3b2638a7cc9f2cb3d298a3da7a90b67e5506ed6116a4565b111561178257731d3b2638a7cc9f2cb3d298a3da7a90b67e5506ed600160006101000a81548173ffffffffffffffffffffffffffffffffffffffff021916908373ffffffffffffffffffffffffffffffffffffffff1602179055506117796040518060400160405280600b81526020017f6574685f6d61696e6e6574000000000000000000000000000000000000000000815250611c17565b60019050611c14565b60006117a173c03a2615d5efaf5f49f60b7bb6583eaec212fdf16116a4565b11156118435773c03a2615d5efaf5f49f60b7bb6583eaec212fdf1600160006101000a81548173ffffffffffffffffffffffffffffffffffffffff021916908373ffffffffffffffffffffffffffffffffffffffff16021790555061183a6040518060400160405280600c81526020017f6574685f726f707374656e330000000000000000000000000000000000000000815250611c17565b60019050611c14565b600061186273b7a07bcf2ba2f2703b24c0691b5278999c59ac7e6116a4565b11156119045773b7a07bcf2ba2f2703b24c0691b5278999c59ac7e600160006101000a81548173ffffffffffffffffffffffffffffffffffffffff021916908373ffffffffffffffffffffffffffffffffffffffff1602179055506118fb6040518060400160405280600981526020017f6574685f6b6f76616e0000000000000000000000000000000000000000000000815250611c17565b60019050611c14565b600061192373146500cfd35b22e4a392fe0adc06de1a1368ed486116a4565b11156119c55773146500cfd35b22e4a392fe0adc06de1a1368ed48600160006101000a81548173ffffffffffffffffffffffffffffffffffffffff021916908373ffffffffffffffffffffffffffffffffffffffff1602179055506119bc6040518060400160405280600b81526020017f6574685f72696e6b656279000000000000000000000000000000000000000000815250611c17565b60019050611c14565b60006119e473a2998efd205fb9d4b4963afb70778d6354ad3a416116a4565b1115611a865773a2998efd205fb9d4b4963afb70778d6354ad3a41600160006101000a81548173ffffffffffffffffffffffffffffffffffffffff021916908373ffffffffffffffffffffffffffffffffffffffff160217905550611a7d6040518060400160405280600a81526020017f6574685f676f65726c6900000000000000000000000000000000000000000000815250611c17565b60019050611c14565b6000611aa5736f485c8bf6fc43ea212e93bbf8ce046c7f1cb4756116a4565b1115611b0957736f485c8bf6fc43ea212e93bbf8ce046c7f1cb475600160006101000a81548173ffffffffffffffffffffffffffffffffffffffff021916908373ffffffffffffffffffffffffffffffffffffffff16021790555060019050611c14565b6000611b287320e12a1f859b3feae5fb2a0a32c18f5a65555bbf6116a4565b1115611b8c577320e12a1f859b3feae5fb2a0a32c18f5a65555bbf600160006101000a81548173ffffffffffffffffffffffffffffffffffffffff021916908373ffffffffffffffffffffffffffffffffffffffff16021790555060019050611c14565b6000611bab7351efaf4c8b3c9afbd5ab9f4bbc82784ab6ef8faa6116a4565b1115611c0f577351efaf4c8b3c9afbd5ab9f4bbc82784ab6ef8faa600160006101000a81548173ffffffffffffffffffffffffffffffffffffffff021916908373ffffffffffffffffffffffffffffffffffffffff16021790555060019050611c14565b600090505b90565b8060029080519060200190611c2d929190611c31565b5050565b828054600181600116156101000203166002900490600052602060002090601f016020900481019282601f10611c7257805160ff1916838001178555611ca0565b82800160010185558215611ca0579182015b82811115611c9f578251825591602001919060010190611c84565b5b509050611cad9190611cb1565b5090565b611cd391905b80821115611ccf576000816000905550600101611cb7565b5090565b9056fe50726f7661626c65207175657279207761732073656e742c207374616e64696e6720627920666f722074686520616e737765722e2e50726f7661626c6520717565727920776173204e4f542073656e742c20706c656173652061646420736f6d652045544820746f20636f76657220666f7220746865207175657279206665656a736f6e2868747470733a2f2f67726561742d6f63746f7075732d39372e6c6f63616c74756e6e656c2e6d652f75736572732f312f44616e6e79292e6e616d65786d6c28687474703a2f2f7273732e636e6e2e636f6d2f7273732f636e6e5f746f7073746f726965732e727373292e7273732e6368616e6e656c2e6974656d2e302e7469746c65a165627a7a723058207ee56233f3a67583f7e2a03f1f070134f22f88647f978fa863aa82806d96756a0029436f6e7374727563746f722077617320696e697469617465642e2043616c6c2027757064617465507269636528292720746f2073656e64207468652050726f7661626c652051756572792e",
  "source": "pragma solidity >=0.4.21 <0.6.0;\n//import \"github.com/provable-things/ethereum-api/provableAPI_0.5.sol\";\nimport \"./provableAPI_0.5.sol\";\n\n\ncontract Oracle is usingProvable  {\n  address payable public owner;\n  uint public last_completed_migration;\n  uint public balance;\n   bytes32 public returnHash;\n   string public ETHUSD;\n   event LogConstructorInitiated(string nextStep);\n   event LogPriceUpdated(string price);\n   event LogNewProvableQuery(string description);\n   event Balance(uint amount, uint moneyNeeded);\n   //event ETHNeeded(uint amount);\n\n\n    constructor() public {\n        owner = msg.sender;\n        emit LogConstructorInitiated(\"Constructor was initiated. Call 'updatePrice()' to send the Provable Query.\");\n    }\n\n   function __callback(bytes32 myid, string memory result) public {\n       if (msg.sender != provable_cbAddress()) revert();\n       ETHUSD = result;\n       returnHash = keccak256(abi.encodePacked(result));\n       emit LogPriceUpdated(result);\n   }\n   \n   function() external payable {}\n\n   function updatePrice() public payable {\n       emit Balance(address(this).balance, provable_getPrice(\"URL\"));\n       if (provable_getPrice(\"URL\") > address(this).balance) {\n           emit LogNewProvableQuery(\"Provable query was NOT sent, please add some ETH to cover for the query fee\");\n       } else {\n           emit LogNewProvableQuery(\"Provable query was sent, standing by for the answer..\");\n           provable_query(\"URL\", \"json(https://great-octopus-97.localtunnel.me/users/1/Danny).name\");\n       }\n   }\n   \n   function getNews() public payable  {\n       emit Balance(address(this).balance, provable_getPrice(\"URL\"));\n       if (provable_getPrice(\"URL\") > address(this).balance) {\n           emit LogNewProvableQuery(\"Provable query was NOT sent, please add some ETH to cover for the query fee\");\n       } else {\n           emit LogNewProvableQuery(\"Provable query was sent, standing by for the answer..\");\n           provable_query(\"URL\", \"xml(http://rss.cnn.com/rss/cnn_topstories.rss).rss.channel.item.0.title\");\n       }\n   }\n\n   function getHash() public view returns (bytes32 dataHash) {\n       return returnHash;\n   }\n\n}",
  "sourcePath": "/Users/kenmiyachi/BlockLAB/offchain-api/contracts/Oracle.sol",
  "compiler": {
    "name": "solc",
    "version": "0.5.8+commit.23d335f2.Emscripten.clang"
  },
  "schemaVersion": "3.0.12",
  "updatedAt": "2019-12-10T22:11:55.834Z",
  "devdoc": {
    "methods": {}
  },
  "userdoc": {
    "methods": {}
  }
}