{
  "contractName": "Organization",
  "abi": [
    {
      "inputs": [
        {
          "name": "_id",
          "type": "bytes32"
        }
      ],
      "payable": false,
      "stateMutability": "nonpayable",
      "type": "constructor"
    },
    {
      "constant": false,
      "inputs": [
        {
          "name": "_memberAddr",
          "type": "address"
        }
      ],
      "name": "addMemberToOrg",
      "outputs": [],
      "payable": false,
      "stateMutability": "nonpayable",
      "type": "function"
    },
    {
      "constant": false,
      "inputs": [
        {
          "name": "_lunaId",
          "type": "bytes32"
        },
        {
          "name": "_orgId",
          "type": "bytes32"
        }
      ],
      "name": "deleteUserFromOrganization",
      "outputs": [],
      "payable": false,
      "stateMutability": "nonpayable",
      "type": "function"
    },
    {
      "constant": false,
      "inputs": [
        {
          "name": "_memberAddr",
          "type": "address"
        }
      ],
      "name": "addResearcherToOrg",
      "outputs": [],
      "payable": false,
      "stateMutability": "nonpayable",
      "type": "function"
    },
    {
      "constant": false,
      "inputs": [
        {
          "name": "_memberAddr",
          "type": "address"
        }
      ],
      "name": "deleteResearcherFromOrg",
      "outputs": [],
      "payable": false,
      "stateMutability": "nonpayable",
      "type": "function"
    }
  ],
  "bytecode": "0x608060405234801561001057600080fd5b506040516020806105b78339810180604052602081101561003057600080fd5b81019080805190602001909291905050508060008190555033600160006101000a81548173ffffffffffffffffffffffffffffffffffffffff021916908373ffffffffffffffffffffffffffffffffffffffff1602179055505061051e806100996000396000f3fe608060405234801561001057600080fd5b506004361061004c5760003560e01c8063402118c0146100515780636b1c017f146100955780638b60f707146100d9578063ba25b55014610111575b600080fd5b6100936004803603602081101561006757600080fd5b81019080803573ffffffffffffffffffffffffffffffffffffffff169060200190929190505050610155565b005b6100d7600480360360208110156100ab57600080fd5b81019080803573ffffffffffffffffffffffffffffffffffffffff169060200190929190505050610264565b005b61010f600480360360408110156100ef57600080fd5b810190808035906020019092919080359060200190929190505050610373565b005b6101536004803603602081101561012757600080fd5b81019080803573ffffffffffffffffffffffffffffffffffffffff16906020019092919050505061041d565b005b600160009054906101000a900473ffffffffffffffffffffffffffffffffffffffff1673ffffffffffffffffffffffffffffffffffffffff163373ffffffffffffffffffffffffffffffffffffffff16146101fb576040517f08c379a000000000000000000000000000000000000000000000000000000000815260040180806020018281038252602c8152602001806104c7602c913960400191505060405180910390fd5b60028190806001815401808255809150509060018203906000526020600020016000909192909190916101000a81548173ffffffffffffffffffffffffffffffffffffffff021916908373ffffffffffffffffffffffffffffffffffffffff1602179055505050565b600160009054906101000a900473ffffffffffffffffffffffffffffffffffffffff1673ffffffffffffffffffffffffffffffffffffffff163373ffffffffffffffffffffffffffffffffffffffff161461030a576040517f08c379a000000000000000000000000000000000000000000000000000000000815260040180806020018281038252602c8152602001806104c7602c913960400191505060405180910390fd5b60028190806001815401808255809150509060018203906000526020600020016000909192909190916101000a81548173ffffffffffffffffffffffffffffffffffffffff021916908373ffffffffffffffffffffffffffffffffffffffff1602179055505050565b600160009054906101000a900473ffffffffffffffffffffffffffffffffffffffff1673ffffffffffffffffffffffffffffffffffffffff163373ffffffffffffffffffffffffffffffffffffffff1614610419576040517f08c379a000000000000000000000000000000000000000000000000000000000815260040180806020018281038252602c8152602001806104c7602c913960400191505060405180910390fd5b5050565b600160009054906101000a900473ffffffffffffffffffffffffffffffffffffffff1673ffffffffffffffffffffffffffffffffffffffff163373ffffffffffffffffffffffffffffffffffffffff16146104c3576040517f08c379a000000000000000000000000000000000000000000000000000000000815260040180806020018281038252602c8152602001806104c7602c913960400191505060405180910390fd5b5056fe53656e646572206973206e6f7420746865204f7267616e697a6174696f6e2041646d696e6973747261746f72a165627a7a72305820660c5faa54ce4f37c575d6de360bd5f957e34e66f566af74a93d8e026e32448c0029",
  "source": "pragma solidity >=0.4.21 <0.6.0;\n\nimport \"./SafeMath.sol\";\n\ncontract Organization {\n    bytes32 orgID;\n    address orgAdmin;\n    address[] memberList;\n    address[] researcherList;\n\n\n    constructor(bytes32 _id) public {\n        orgID = _id;\n        orgAdmin = address(msg.sender);\n    }\n\n\n    modifier isOrgAdmin() {\n        require(msg.sender == orgAdmin, \"Sender is not the Organization Administrator\");\n        _;\n    }\n\n    function addMemberToOrg(address _memberAddr) public isOrgAdmin {\n        memberList.push(_memberAddr);\n    }\n\n    function deleteUserFromOrganization(bytes32 _lunaId, bytes32 _orgId) public isOrgAdmin {\n        //TBD\n    }\n\n\n    function addResearcherToOrg(address _memberAddr) public isOrgAdmin {\n        memberList.push(_memberAddr);\n    }\n\n\n        function deleteResearcherFromOrg(address _memberAddr) public isOrgAdmin {\n        //TBD\n    }\n}",
  "sourcePath": "/Users/kenmiyachi/BlockLAB/offchain-api/contracts/Organization.sol",
  "compiler": {
    "name": "solc",
    "version": "0.5.8+commit.23d335f2.Emscripten.clang"
  },
  "schemaVersion": "3.0.12",
  "updatedAt": "2019-12-05T02:07:57.047Z",
  "devdoc": {
    "methods": {}
  },
  "userdoc": {
    "methods": {}
  }
}