{
  "contractName": "Researcher",
  "abi": [
    {
      "inputs": [
        {
          "name": "_id",
          "type": "bytes32"
        },
        {
          "name": "_name",
          "type": "string"
        }
      ],
      "payable": false,
      "stateMutability": "nonpayable",
      "type": "constructor"
    },
    {
      "constant": false,
      "inputs": [
        {
          "name": "_query",
          "type": "string"
        },
        {
          "name": "_timeStamp",
          "type": "string"
        }
      ],
      "name": "searchData",
      "outputs": [],
      "payable": false,
      "stateMutability": "nonpayable",
      "type": "function"
    },
    {
      "constant": false,
      "inputs": [
        {
          "name": "_idList",
          "type": "bytes32[]"
        },
        {
          "name": "dataElements",
          "type": "uint256[]"
        },
        {
          "name": "_timeStamp",
          "type": "string"
        }
      ],
      "name": "retrieveData",
      "outputs": [],
      "payable": false,
      "stateMutability": "nonpayable",
      "type": "function"
    },
    {
      "constant": false,
      "inputs": [
        {
          "name": "_idList",
          "type": "bytes32[]"
        },
        {
          "name": "_message",
          "type": "string"
        },
        {
          "name": "_timeStamp",
          "type": "string"
        }
      ],
      "name": "contactCohort",
      "outputs": [],
      "payable": false,
      "stateMutability": "nonpayable",
      "type": "function"
    }
  ],
  "bytecode": "0x608060405234801561001057600080fd5b506040516109c53803806109c58339810180604052604081101561003357600080fd5b8101908080519060200190929190805164010000000081111561005557600080fd5b8281019050602081018481111561006b57600080fd5b815185600182028301116401000000008211171561008857600080fd5b50509291905050508160008190555080600190805190602001906100ad9291906100b5565b50505061015a565b828054600181600116156101000203166002900490600052602060002090601f016020900481019282601f106100f657805160ff1916838001178555610124565b82800160010185558215610124579182015b82811115610123578251825591602001919060010190610108565b5b5090506101319190610135565b5090565b61015791905b8082111561015357600081600090555060010161013b565b5090565b90565b61085c806101696000396000f3fe608060405234801561001057600080fd5b50600436106100415760003560e01c80633566d6c114610046578063f74e62c61461022c578063fa0e11531461037e575b600080fd5b61022a6004803603606081101561005c57600080fd5b810190808035906020019064010000000081111561007957600080fd5b82018360208201111561008b57600080fd5b803590602001918460208302840111640100000000831117156100ad57600080fd5b919080806020026020016040519081016040528093929190818152602001838360200280828437600081840152601f19601f8201169050808301925050505050505091929192908035906020019064010000000081111561010d57600080fd5b82018360208201111561011f57600080fd5b8035906020019184600183028401116401000000008311171561014157600080fd5b91908080601f016020809104026020016040519081016040528093929190818152602001838380828437600081840152601f19601f820116905080830192505050505050509192919290803590602001906401000000008111156101a457600080fd5b8201836020820111156101b657600080fd5b803590602001918460018302840111640100000000831117156101d857600080fd5b91908080601f016020809104026020016040519081016040528093929190818152602001838380828437600081840152601f19601f820116905080830192505050505050509192919290505050610561565b005b61037c6004803603604081101561024257600080fd5b810190808035906020019064010000000081111561025f57600080fd5b82018360208201111561027157600080fd5b8035906020019184600183028401116401000000008311171561029357600080fd5b91908080601f016020809104026020016040519081016040528093929190818152602001838380828437600081840152601f19601f820116905080830192505050505050509192919290803590602001906401000000008111156102f657600080fd5b82018360208201111561030857600080fd5b8035906020019184600183028401116401000000008311171561032a57600080fd5b91908080601f016020809104026020016040519081016040528093929190818152602001838380828437600081840152601f19601f82011690508083019250505050505050919291929050505061061a565b005b61055f6004803603606081101561039457600080fd5b81019080803590602001906401000000008111156103b157600080fd5b8201836020820111156103c357600080fd5b803590602001918460208302840111640100000000831117156103e557600080fd5b919080806020026020016040519081016040528093929190818152602001838360200280828437600081840152601f19601f8201169050808301925050505050505091929192908035906020019064010000000081111561044557600080fd5b82018360208201111561045757600080fd5b8035906020019184602083028401116401000000008311171561047957600080fd5b919080806020026020016040519081016040528093929190818152602001838360200280828437600081840152601f19601f820116905080830192505050505050509192919290803590602001906401000000008111156104d957600080fd5b8201836020820111156104eb57600080fd5b8035906020019184600183028401116401000000008311171561050d57600080fd5b91908080601f016020809104026020016040519081016040528093929190818152602001838380828437600081840152601f19601f8201169050808301925050505050505091929192905050506106d2565b005b600560405180604001604052808381526020016040518060400160405280600781526020017f436f6e74616374000000000000000000000000000000000000000000000000008152508152509080600181540180825580915050906001820390600052602060002090600202016000909192909190915060008201518160000190805190602001906105f492919061078b565b50602082015181600101908051906020019061061192919061078b565b50505050505050565b600560405180604001604052808381526020016040518060400160405280600681526020017f53656172636800000000000000000000000000000000000000000000000000008152508152509080600181540180825580915050906001820390600052602060002090600202016000909192909190915060008201518160000190805190602001906106ad92919061078b565b5060208201518160010190805190602001906106ca92919061078b565b505050505050565b600560405180604001604052808381526020016040518060400160405280600881526020017f526574726965766500000000000000000000000000000000000000000000000081525081525090806001815401808255809150509060018203906000526020600020906002020160009091929091909150600082015181600001908051906020019061076592919061078b565b50602082015181600101908051906020019061078292919061078b565b50505050505050565b828054600181600116156101000203166002900490600052602060002090601f016020900481019282601f106107cc57805160ff19168380011785556107fa565b828001600101855582156107fa579182015b828111156107f95782518255916020019190600101906107de565b5b509050610807919061080b565b5090565b61082d91905b80821115610829576000816000905550600101610811565b5090565b9056fea165627a7a7230582008614d89c18a7ca90f66971e1736c142914a387d063f412ef6214488660e24550029",
  "source": "pragma solidity >=0.4.21 <0.6.0;\n\nimport \"./SafeMath.sol\";\n\ncontract Researcher {\n    bytes32 lunaID;\n    string name;\n    address[] researchers;\n    uint256[] modifications;\n    uint256[] modTime;\n\n\n    struct Query {\n        string timeStamp;\n        string queryType;\n    }\n\n    Query[] queries;\n\n\n    constructor(bytes32 _id, string memory _name) public {\n        lunaID = _id;\n        name = _name;\n    }\n\n\n    function searchData (string memory _query, string memory _timeStamp) public {\n        queries.push(Query(_timeStamp, \"Search\"));\n    }\n\n    function retrieveData(bytes32[] memory _idList, uint256[] memory dataElements, string memory _timeStamp) public {\n        queries.push(Query(_timeStamp, \"Retrieve\"));\n    }\n\n    function contactCohort(bytes32[] memory _idList, string memory _message,string memory _timeStamp) public {\n         queries.push(Query(_timeStamp, \"Contact\"));\n    }\n\n}",
  "sourcePath": "/Users/kenmiyachi/BlockLAB/offchain-api/contracts/Researcher.sol",
  "compiler": {
    "name": "solc",
    "version": "0.5.8+commit.23d335f2.Emscripten.clang"
  },
  "schemaVersion": "3.0.12",
  "updatedAt": "2019-12-07T09:04:17.426Z",
  "devdoc": {
    "methods": {}
  },
  "userdoc": {
    "methods": {}
  }
}