{
  "contractName": "SysAdmin",
  "abi": [
    {
      "constant": false,
      "inputs": [
        {
          "name": "_email",
          "type": "string"
        },
        {
          "name": "_name",
          "type": "string"
        },
        {
          "name": "_proxy",
          "type": "bool"
        }
      ],
      "name": "createMember",
      "outputs": [],
      "payable": false,
      "stateMutability": "nonpayable",
      "type": "function"
    },
    {
      "constant": false,
      "inputs": [
        {
          "name": "_lunaID",
          "type": "bytes32"
        }
      ],
      "name": "deleteMember",
      "outputs": [],
      "payable": false,
      "stateMutability": "nonpayable",
      "type": "function"
    },
    {
      "constant": false,
      "inputs": [
        {
          "name": "_name",
          "type": "string"
        },
        {
          "name": "_email",
          "type": "string"
        },
        {
          "name": "_orgType",
          "type": "uint256"
        }
      ],
      "name": "createOrganization",
      "outputs": [],
      "payable": false,
      "stateMutability": "nonpayable",
      "type": "function"
    },
    {
      "constant": false,
      "inputs": [
        {
          "name": "_orgID",
          "type": "bytes32"
        }
      ],
      "name": "deleteOrganization",
      "outputs": [],
      "payable": false,
      "stateMutability": "nonpayable",
      "type": "function"
    },
    {
      "constant": false,
      "inputs": [
        {
          "name": "_name",
          "type": "string"
        }
      ],
      "name": "createResearcher",
      "outputs": [],
      "payable": false,
      "stateMutability": "nonpayable",
      "type": "function"
    },
    {
      "constant": false,
      "inputs": [
        {
          "name": "_lunaID",
          "type": "bytes32"
        }
      ],
      "name": "deleteResearcher",
      "outputs": [],
      "payable": false,
      "stateMutability": "nonpayable",
      "type": "function"
    }
  ],
  "bytecode": "0x608060405234801561001057600080fd5b506124c2806100206000396000f3fe608060405234801561001057600080fd5b50600436106100625760003560e01c80630efc61c514610067578063277a0280146100955780636928848d1461015057806379a876a01461017e5780638bb14dd8146102da578063be79da2d14610438575b600080fd5b6100936004803603602081101561007d57600080fd5b8101908080359060200190929190505050610466565b005b61014e600480360360208110156100ab57600080fd5b81019080803590602001906401000000008111156100c857600080fd5b8201836020820111156100da57600080fd5b803590602001918460018302840111640100000000831117156100fc57600080fd5b91908080601f016020809104026020016040519081016040528093929190818152602001838380828437600081840152601f19601f82011690508083019250505050505050919291929050505061049f565b005b61017c6004803603602081101561016657600080fd5b8101908080359060200190929190505050610696565b005b6102d86004803603606081101561019457600080fd5b81019080803590602001906401000000008111156101b157600080fd5b8201836020820111156101c357600080fd5b803590602001918460018302840111640100000000831117156101e557600080fd5b91908080601f016020809104026020016040519081016040528093929190818152602001838380828437600081840152601f19601f8201169050808301925050505050505091929192908035906020019064010000000081111561024857600080fd5b82018360208201111561025a57600080fd5b8035906020019184600183028401116401000000008311171561027c57600080fd5b91908080601f016020809104026020016040519081016040528093929190818152602001838380828437600081840152601f19601f820116905080830192505050505050509192919290803590602001909291905050506106cf565b005b610436600480360360608110156102f057600080fd5b810190808035906020019064010000000081111561030d57600080fd5b82018360208201111561031f57600080fd5b8035906020019184600183028401116401000000008311171561034157600080fd5b91908080601f016020809104026020016040519081016040528093929190818152602001838380828437600081840152601f19601f820116905080830192505050505050509192919290803590602001906401000000008111156103a457600080fd5b8201836020820111156103b657600080fd5b803590602001918460018302840111640100000000831117156103d857600080fd5b91908080601f016020809104026020016040519081016040528093929190818152602001838380828437600081840152601f19601f820116905080830192505050505050509192919290803515159060200190929190505050610831565b005b6104646004803603602081101561044e57600080fd5b8101908080359060200190929190505050610a2b565b005b6005600082815260200190815260200160002060006101000a81549073ffffffffffffffffffffffffffffffffffffffff021916905550565b806040516020018082805190602001908083835b602083106104d657805182526020820191506020810190506020830392506104b3565b6001836020036101000a03801982511681845116808217855250505050505090500191505060405160208183030381529060405280519060200120600081905550600080548260405161052890610a64565b8083815260200180602001828103825283818151815260200191508051906020019080838360005b8381101561056b578082015181840152602081019050610550565b50505050905090810190601f1680156105985780820380516001836020036101000a031916815260200191505b509350505050604051809103906000f0801580156105ba573d6000803e3d6000fd5b50905080600660008054815260200190815260200160002060006101000a81548173ffffffffffffffffffffffffffffffffffffffff021916908373ffffffffffffffffffffffffffffffffffffffff16021790555060016009836040518082805190602001908083835b602083106106485780518252602082019150602081019050602083039250610625565b6001836020036101000a038019825116818451168082178552505050505050905001915050908152602001604051809103902060006101000a81548160ff0219169083151502179055505050565b6007600082815260200190815260200160002060006101000a81549073ffffffffffffffffffffffffffffffffffffffff021916905550565b60008284836040516020018084805190602001908083835b6020831061070a57805182526020820191506020810190506020830392506106e7565b6001836020036101000a03801982511681845116808217855250505050505090500183805190602001908083835b6020831061075b5780518252602082019150602081019050602083039250610738565b6001836020036101000a03801982511681845116808217855250505050505090500182815260200193505050506040516020818303038152906040528051906020012090506000816040516107af90610a71565b80828152602001915050604051809103906000f0801580156107d5573d6000803e3d6000fd5b509050806007600084815260200190815260200160002060006101000a81548173ffffffffffffffffffffffffffffffffffffffff021916908373ffffffffffffffffffffffffffffffffffffffff1602179055505050505050565b8282826040516020018084805190602001908083835b6020831061086a5780518252602082019150602081019050602083039250610847565b6001836020036101000a03801982511681845116808217855250505050505090500183805190602001908083835b602083106108bb5780518252602082019150602081019050602083039250610898565b6001836020036101000a038019825116818451168082178552505050505050905001821515151560f81b8152600101935050505060405160208183030381529060405280519060200120600081905550600080548260405161091c90610a7e565b808381526020018215151515815260200192505050604051809103906000f08015801561094d573d6000803e3d6000fd5b50905080600560008054815260200190815260200160002060006101000a81548173ffffffffffffffffffffffffffffffffffffffff021916908373ffffffffffffffffffffffffffffffffffffffff16021790555060016008846040518082805190602001908083835b602083106109db57805182526020820191506020810190506020830392506109b8565b6001836020036101000a038019825116818451168082178552505050505050905001915050908152602001604051809103902060006101000a81548160ff02191690831515021790555050505050565b6006600082815260200190815260200160002060006101000a81549073ffffffffffffffffffffffffffffffffffffffff021916905550565b6109c580610a8c83390190565b6105b78061145183390190565b610a8f80611a088339019056fe608060405234801561001057600080fd5b506040516109c53803806109c58339810180604052604081101561003357600080fd5b8101908080519060200190929190805164010000000081111561005557600080fd5b8281019050602081018481111561006b57600080fd5b815185600182028301116401000000008211171561008857600080fd5b50509291905050508160008190555080600190805190602001906100ad9291906100b5565b50505061015a565b828054600181600116156101000203166002900490600052602060002090601f016020900481019282601f106100f657805160ff1916838001178555610124565b82800160010185558215610124579182015b82811115610123578251825591602001919060010190610108565b5b5090506101319190610135565b5090565b61015791905b8082111561015357600081600090555060010161013b565b5090565b90565b61085c806101696000396000f3fe608060405234801561001057600080fd5b50600436106100415760003560e01c80633566d6c114610046578063f74e62c61461022c578063fa0e11531461037e575b600080fd5b61022a6004803603606081101561005c57600080fd5b810190808035906020019064010000000081111561007957600080fd5b82018360208201111561008b57600080fd5b803590602001918460208302840111640100000000831117156100ad57600080fd5b919080806020026020016040519081016040528093929190818152602001838360200280828437600081840152601f19601f8201169050808301925050505050505091929192908035906020019064010000000081111561010d57600080fd5b82018360208201111561011f57600080fd5b8035906020019184600183028401116401000000008311171561014157600080fd5b91908080601f016020809104026020016040519081016040528093929190818152602001838380828437600081840152601f19601f820116905080830192505050505050509192919290803590602001906401000000008111156101a457600080fd5b8201836020820111156101b657600080fd5b803590602001918460018302840111640100000000831117156101d857600080fd5b91908080601f016020809104026020016040519081016040528093929190818152602001838380828437600081840152601f19601f820116905080830192505050505050509192919290505050610561565b005b61037c6004803603604081101561024257600080fd5b810190808035906020019064010000000081111561025f57600080fd5b82018360208201111561027157600080fd5b8035906020019184600183028401116401000000008311171561029357600080fd5b91908080601f016020809104026020016040519081016040528093929190818152602001838380828437600081840152601f19601f820116905080830192505050505050509192919290803590602001906401000000008111156102f657600080fd5b82018360208201111561030857600080fd5b8035906020019184600183028401116401000000008311171561032a57600080fd5b91908080601f016020809104026020016040519081016040528093929190818152602001838380828437600081840152601f19601f82011690508083019250505050505050919291929050505061061a565b005b61055f6004803603606081101561039457600080fd5b81019080803590602001906401000000008111156103b157600080fd5b8201836020820111156103c357600080fd5b803590602001918460208302840111640100000000831117156103e557600080fd5b919080806020026020016040519081016040528093929190818152602001838360200280828437600081840152601f19601f8201169050808301925050505050505091929192908035906020019064010000000081111561044557600080fd5b82018360208201111561045757600080fd5b8035906020019184602083028401116401000000008311171561047957600080fd5b919080806020026020016040519081016040528093929190818152602001838360200280828437600081840152601f19601f820116905080830192505050505050509192919290803590602001906401000000008111156104d957600080fd5b8201836020820111156104eb57600080fd5b8035906020019184600183028401116401000000008311171561050d57600080fd5b91908080601f016020809104026020016040519081016040528093929190818152602001838380828437600081840152601f19601f8201169050808301925050505050505091929192905050506106d2565b005b600560405180604001604052808381526020016040518060400160405280600781526020017f436f6e74616374000000000000000000000000000000000000000000000000008152508152509080600181540180825580915050906001820390600052602060002090600202016000909192909190915060008201518160000190805190602001906105f492919061078b565b50602082015181600101908051906020019061061192919061078b565b50505050505050565b600560405180604001604052808381526020016040518060400160405280600681526020017f53656172636800000000000000000000000000000000000000000000000000008152508152509080600181540180825580915050906001820390600052602060002090600202016000909192909190915060008201518160000190805190602001906106ad92919061078b565b5060208201518160010190805190602001906106ca92919061078b565b505050505050565b600560405180604001604052808381526020016040518060400160405280600881526020017f526574726965766500000000000000000000000000000000000000000000000081525081525090806001815401808255809150509060018203906000526020600020906002020160009091929091909150600082015181600001908051906020019061076592919061078b565b50602082015181600101908051906020019061078292919061078b565b50505050505050565b828054600181600116156101000203166002900490600052602060002090601f016020900481019282601f106107cc57805160ff19168380011785556107fa565b828001600101855582156107fa579182015b828111156107f95782518255916020019190600101906107de565b5b509050610807919061080b565b5090565b61082d91905b80821115610829576000816000905550600101610811565b5090565b9056fea165627a7a7230582008614d89c18a7ca90f66971e1736c142914a387d063f412ef6214488660e24550029608060405234801561001057600080fd5b506040516020806105b78339810180604052602081101561003057600080fd5b81019080805190602001909291905050508060008190555033600160006101000a81548173ffffffffffffffffffffffffffffffffffffffff021916908373ffffffffffffffffffffffffffffffffffffffff1602179055505061051e806100996000396000f3fe608060405234801561001057600080fd5b506004361061004c5760003560e01c8063402118c0146100515780636b1c017f146100955780638b60f707146100d9578063ba25b55014610111575b600080fd5b6100936004803603602081101561006757600080fd5b81019080803573ffffffffffffffffffffffffffffffffffffffff169060200190929190505050610155565b005b6100d7600480360360208110156100ab57600080fd5b81019080803573ffffffffffffffffffffffffffffffffffffffff169060200190929190505050610264565b005b61010f600480360360408110156100ef57600080fd5b810190808035906020019092919080359060200190929190505050610373565b005b6101536004803603602081101561012757600080fd5b81019080803573ffffffffffffffffffffffffffffffffffffffff16906020019092919050505061041d565b005b600160009054906101000a900473ffffffffffffffffffffffffffffffffffffffff1673ffffffffffffffffffffffffffffffffffffffff163373ffffffffffffffffffffffffffffffffffffffff16146101fb576040517f08c379a000000000000000000000000000000000000000000000000000000000815260040180806020018281038252602c8152602001806104c7602c913960400191505060405180910390fd5b60028190806001815401808255809150509060018203906000526020600020016000909192909190916101000a81548173ffffffffffffffffffffffffffffffffffffffff021916908373ffffffffffffffffffffffffffffffffffffffff1602179055505050565b600160009054906101000a900473ffffffffffffffffffffffffffffffffffffffff1673ffffffffffffffffffffffffffffffffffffffff163373ffffffffffffffffffffffffffffffffffffffff161461030a576040517f08c379a000000000000000000000000000000000000000000000000000000000815260040180806020018281038252602c8152602001806104c7602c913960400191505060405180910390fd5b60028190806001815401808255809150509060018203906000526020600020016000909192909190916101000a81548173ffffffffffffffffffffffffffffffffffffffff021916908373ffffffffffffffffffffffffffffffffffffffff1602179055505050565b600160009054906101000a900473ffffffffffffffffffffffffffffffffffffffff1673ffffffffffffffffffffffffffffffffffffffff163373ffffffffffffffffffffffffffffffffffffffff1614610419576040517f08c379a000000000000000000000000000000000000000000000000000000000815260040180806020018281038252602c8152602001806104c7602c913960400191505060405180910390fd5b5050565b600160009054906101000a900473ffffffffffffffffffffffffffffffffffffffff1673ffffffffffffffffffffffffffffffffffffffff163373ffffffffffffffffffffffffffffffffffffffff16146104c3576040517f08c379a000000000000000000000000000000000000000000000000000000000815260040180806020018281038252602c8152602001806104c7602c913960400191505060405180910390fd5b5056fe53656e646572206973206e6f7420746865204f7267616e697a6174696f6e2041646d696e6973747261746f72a165627a7a72305820660c5faa54ce4f37c575d6de360bd5f957e34e66f566af74a93d8e026e32448c0029608060405234801561001057600080fd5b50604051604080610a8f8339810180604052604081101561003057600080fd5b8101908080519060200190929190805190602001909291905050508160008190555080600160006101000a81548160ff0219169083151502179055505050610a128061007d6000396000f3fe608060405234801561001057600080fd5b50600436106100415760003560e01c80637731d02e14610046578063a69ea63c146101b8578063d8a874ff1461030a575b600080fd5b6101b66004803603606081101561005c57600080fd5b81019080803573ffffffffffffffffffffffffffffffffffffffff1690602001909291908035906020019064010000000081111561009957600080fd5b8201836020820111156100ab57600080fd5b803590602001918460018302840111640100000000831117156100cd57600080fd5b91908080601f016020809104026020016040519081016040528093929190818152602001838380828437600081840152601f19601f8201169050808301925050505050505091929192908035906020019064010000000081111561013057600080fd5b82018360208201111561014257600080fd5b8035906020019184600183028401116401000000008311171561016457600080fd5b91908080601f016020809104026020016040519081016040528093929190818152602001838380828437600081840152601f19601f82011690508083019250505050505050919291929050505061047c565b005b610308600480360360408110156101ce57600080fd5b81019080803590602001906401000000008111156101eb57600080fd5b8201836020820111156101fd57600080fd5b8035906020019184600183028401116401000000008311171561021f57600080fd5b91908080601f016020809104026020016040519081016040528093929190818152602001838380828437600081840152601f19601f8201169050808301925050505050505091929192908035906020019064010000000081111561028257600080fd5b82018360208201111561029457600080fd5b803590602001918460018302840111640100000000831117156102b657600080fd5b91908080601f016020809104026020016040519081016040528093929190818152602001838380828437600081840152601f19601f82011690508083019250505050505050919291929050505061061c565b005b61047a6004803603606081101561032057600080fd5b810190808035906020019064010000000081111561033d57600080fd5b82018360208201111561034f57600080fd5b8035906020019184600183028401116401000000008311171561037157600080fd5b91908080601f016020809104026020016040519081016040528093929190818152602001838380828437600081840152601f19601f820116905080830192505050505050509192919290803573ffffffffffffffffffffffffffffffffffffffff169060200190929190803590602001906401000000008111156103f457600080fd5b82018360208201111561040657600080fd5b8035906020019184600183028401116401000000008311171561042857600080fd5b91908080601f016020809104026020016040519081016040528093929190818152602001838380828437600081840152601f19601f820116905080830192505050505050509192919290505050610760565b005b60028290806001815401808255809150509060018203906000526020600020016000909192909190915090805190602001906104b99291906108c1565b5050826003836040518082805190602001908083835b602083106104f257805182526020820191506020810190506020830392506104cf565b6001836020036101000a038019825116818451168082178552505050505050905001915050908152602001604051809103902060006101000a81548173ffffffffffffffffffffffffffffffffffffffff021916908373ffffffffffffffffffffffffffffffffffffffff160217905550600460405180604001604052808381526020016040518060400160405280600381526020017f61646400000000000000000000000000000000000000000000000000000000008152508152509080600181540180825580915050906001820390600052602060002090600202016000909192909190915060008201518160000190805190602001906105f6929190610941565b506020820151816001019080519060200190610613929190610941565b50505050505050565b6003826040518082805190602001908083835b60208310610652578051825260208201915060208101905060208303925061062f565b6001836020036101000a038019825116818451168082178552505050505050905001915050908152602001604051809103902060006101000a81549073ffffffffffffffffffffffffffffffffffffffff0219169055600460405180604001604052808381526020016040518060400160405280600681526020017f64656c657465000000000000000000000000000000000000000000000000000081525081525090806001815401808255809150509060018203906000526020600020906002020160009091929091909150600082015181600001908051906020019061073b929190610941565b506020820151816001019080519060200190610758929190610941565b505050505050565b816003846040518082805190602001908083835b602083106107975780518252602082019150602081019050602083039250610774565b6001836020036101000a038019825116818451168082178552505050505050905001915050908152602001604051809103902060006101000a81548173ffffffffffffffffffffffffffffffffffffffff021916908373ffffffffffffffffffffffffffffffffffffffff160217905550600460405180604001604052808381526020016040518060400160405280600481526020017f656469740000000000000000000000000000000000000000000000000000000081525081525090806001815401808255809150509060018203906000526020600020906002020160009091929091909150600082015181600001908051906020019061089b929190610941565b5060208201518160010190805190602001906108b8929190610941565b50505050505050565b828054600181600116156101000203166002900490600052602060002090601f016020900481019282601f1061090257805160ff1916838001178555610930565b82800160010185558215610930579182015b8281111561092f578251825591602001919060010190610914565b5b50905061093d91906109c1565b5090565b828054600181600116156101000203166002900490600052602060002090601f016020900481019282601f1061098257805160ff19168380011785556109b0565b828001600101855582156109b0579182015b828111156109af578251825591602001919060010190610994565b5b5090506109bd91906109c1565b5090565b6109e391905b808211156109df5760008160009055506001016109c7565b5090565b9056fea165627a7a72305820fae8d6a1b76bc53456faceb8e75c4778a43d055dfc3ab2f939313ef06172a4ec0029a165627a7a72305820b21ba99010c1a4dc12ef2f43948f7e6a7929a7bc03703a981be533a7de2df2b60029",
  "source": "pragma solidity >=0.4.21 <0.6.0;\n\nimport \"./SafeMath.sol\";\nimport \"./Member.sol\";\nimport \"./Researcher.sol\";\nimport \"./Organization.sol\";\n\ncontract SysAdmin {\n    bytes32 lunaID;\n    string name;\n    bool proxyUser;\n    uint256[] modifications;\n    uint256[] modTime;\n\n    mapping(bytes32=>address) memberMap;\n    mapping(bytes32=>address) researcherMap;\n    mapping(bytes32=>address) orgMap;\n\n    mapping(string=>bool) memberName;\n    mapping(string=>bool) researcherName;\n\n\n    struct Modification {\n        string timeStamp;\n        string modType;\n    }\n\n\n    /// @dev creates a user and stores it on the blockchain\n    /// @param _email - email of the user\n    /// @param _name - name of the user\n    /// @param _proxy - whether the user is a proxy user or not\n    /// @return - to be determined\n    function createMember(string memory _email, string memory _name, bool _proxy) public {\n        lunaID = keccak256(abi.encodePacked(_email, _name, _proxy));\n        Member newMember = new Member(lunaID, _proxy);\n        memberMap[lunaID] = address(newMember);\n        memberName[_name] = true;\n    }\n\n\n    // ** Need to add memberName deletion\n    function deleteMember(bytes32 _lunaID) public {\n        delete memberMap[_lunaID];\n    }\n\n    function createOrganization(string memory _name, string memory _email, uint256 _orgType) public {\n        bytes32 orgID = keccak256(abi.encodePacked(_email, _name, _orgType));\n        //bytes32 orgID = lunaID;\n        Organization newOrganization = new Organization(orgID);\n        orgMap[orgID] = address(newOrganization);\n    }\n\n    function deleteOrganization (bytes32 _orgID) public{\n        delete orgMap[_orgID];\n    }\n  \n    function createResearcher(string memory _name) public {\n        lunaID = keccak256(abi.encodePacked(_name));\n        Researcher newResearcher = new Researcher(lunaID, _name);\n        researcherMap[lunaID] = address(newResearcher);\n        researcherName[_name] = true;\n    }\n\n    function deleteResearcher(bytes32 _lunaID) public {\n        delete researcherMap[_lunaID];\n    }\n\n    // ----------------------------------------------- --------- --------------------------------------//\n    // ----------------------------------------------- MODIFIERS --------------------------------------//\n    // ----------------------------------------------- --------- --------------------------------------//\n\n    modifier memberExists(bytes32 _lunaID) {\n        require(memberMap[_lunaID] != address(0), \"Member does not exist\");\n        _;\n    }\n\n    modifier isResearcher(bytes32 _lunaID) {\n        require(researcherMap[_lunaID] != address(0), \"Not a researcher\");\n        _;\n    }\n\n    modifier isOrgAdmin(bytes32 _lunaID) {\n        require(orgMap[_lunaID] != address(0), \"Not an organization admin\");\n        _;\n    }\n\n    modifier isSysAdmin(bytes32 _lunaID) {\n        require(msg.sender == address(this), \"Not the System Admin\");\n        _;\n    }\n\n\n\n}",
  "sourcePath": "/Users/kenmiyachi/BlockLAB/offchain-api/contracts/SysAdmin.sol",
  "compiler": {
    "name": "solc",
    "version": "0.5.8+commit.23d335f2.Emscripten.clang"
  },
  "schemaVersion": "3.0.12",
  "updatedAt": "2019-12-05T02:07:57.044Z",
  "devdoc": {
    "methods": {
      "createMember(string,string,bool)": {
        "details": "creates a user and stores it on the blockchain",
        "params": {
          "_email": "- email of the user",
          "_name": "- name of the user",
          "_proxy": "- whether the user is a proxy user or not"
        },
        "return": "- to be determined"
      }
    }
  },
  "userdoc": {
    "methods": {}
  }
}